{
  "address": "0x5FbDB2315678afecb367f032d93F642f64180aa3",
  "abi": [
    {
      "inputs": [],
      "stateMutability": "nonpayable",
      "type": "constructor"
    },
    {
      "inputs": [
        {
          "internalType": "uint256",
          "name": "_gameId",
          "type": "uint256"
        },
        {
          "internalType": "uint256",
          "name": "moveId",
          "type": "uint256"
        },
        {
          "internalType": "uint256",
          "name": "salt",
          "type": "uint256"
        }
      ],
      "name": "commitMove",
      "outputs": [],
      "stateMutability": "nonpayable",
      "type": "function"
    },
    {
      "inputs": [
        {
          "internalType": "address payable",
          "name": "participant",
          "type": "address"
        }
      ],
      "name": "createGame",
      "outputs": [],
      "stateMutability": "payable",
      "type": "function"
    },
    {
      "inputs": [
        {
          "internalType": "uint256",
          "name": "",
          "type": "uint256"
        }
      ],
      "name": "games",
      "outputs": [
        {
          "internalType": "uint256",
          "name": "id",
          "type": "uint256"
        },
        {
          "internalType": "uint256",
          "name": "bet",
          "type": "uint256"
        },
        {
          "internalType": "enum RockPaperScissors.State",
          "name": "state",
          "type": "uint8"
        }
      ],
      "stateMutability": "view",
      "type": "function"
    },
    {
      "inputs": [],
      "name": "getGameId",
      "outputs": [
        {
          "internalType": "uint256",
          "name": "",
          "type": "uint256"
        }
      ],
      "stateMutability": "view",
      "type": "function"
    },
    {
      "inputs": [
        {
          "internalType": "uint256",
          "name": "_gameId",
          "type": "uint256"
        }
      ],
      "name": "joinGame",
      "outputs": [],
      "stateMutability": "payable",
      "type": "function"
    },
    {
      "inputs": [
        {
          "internalType": "uint256",
          "name": "",
          "type": "uint256"
        },
        {
          "internalType": "address",
          "name": "",
          "type": "address"
        }
      ],
      "name": "moves",
      "outputs": [
        {
          "internalType": "bytes32",
          "name": "hash",
          "type": "bytes32"
        },
        {
          "internalType": "uint256",
          "name": "value",
          "type": "uint256"
        }
      ],
      "stateMutability": "view",
      "type": "function"
    },
    {
      "inputs": [
        {
          "internalType": "uint256",
          "name": "_gameId",
          "type": "uint256"
        },
        {
          "internalType": "uint256",
          "name": "moveId",
          "type": "uint256"
        },
        {
          "internalType": "uint256",
          "name": "salt",
          "type": "uint256"
        }
      ],
      "name": "revealMove",
      "outputs": [],
      "stateMutability": "nonpayable",
      "type": "function"
    },
    {
      "inputs": [
        {
          "internalType": "uint256",
          "name": "",
          "type": "uint256"
        }
      ],
      "name": "winningMoves",
      "outputs": [
        {
          "internalType": "uint256",
          "name": "",
          "type": "uint256"
        }
      ],
      "stateMutability": "view",
      "type": "function"
    }
  ],
  "transactionHash": "0xa3b80de3e94365d0a656b30de18065160a34a8ed5c1581cfa0c7ad080dc436ce",
  "args": [],
  "numDeployments": 1,
  "solcInputHash": "925d33ff6ee3027052871db96bc90711",
  "bytecode": "0x608060405234801561001057600080fd5b50600360026000600181526020019081526020016000208190555060016002600060028152602001908152602001600020819055506002806000600381526020019081526020016000208190555061198e8061006d6000396000f3fe60806040526004361061007b5760003560e01c8063474d0b5a1161004e578063474d0b5a1461014f5780634b4cbb451461016b578063c0bd8351146101a8578063efaa55a0146101d35761007b565b8063117a5b901461008057806322337a88146100bf57806334d3ce4b146100fd578063354fe54a14610126575b600080fd5b34801561008c57600080fd5b506100a760048036038101906100a29190611149565b6101ef565b6040516100b6939291906111fc565b60405180910390f35b3480156100cb57600080fd5b506100e660048036038101906100e19190611291565b610226565b6040516100f49291906112ea565b60405180910390f35b34801561010957600080fd5b50610124600480360381019061011f9190611313565b610257565b005b34801561013257600080fd5b5061014d60048036038101906101489190611313565b61065c565b005b610169600480360381019061016491906113a4565b610c79565b005b34801561017757600080fd5b50610192600480360381019061018d9190611149565b610e21565b60405161019f91906113d1565b60405180910390f35b3480156101b457600080fd5b506101bd610e39565b6040516101ca91906113d1565b60405180910390f35b6101ed60048036038101906101e89190611149565b610e43565b005b60006020528060005260406000206000915090508060000154908060010154908060040160009054906101000a900460ff16905083565b6001602052816000526040600020602052806000526040600020600091509150508060000154908060010154905082565b600080600085815260200190815260200160002090506001600381111561028157610280611185565b5b8160040160009054906101000a900460ff1660038111156102a5576102a4611185565b5b146102e5576040517f08c379a00000000000000000000000000000000000000000000000000000000081526004016102dc90611449565b60405180910390fd5b3373ffffffffffffffffffffffffffffffffffffffff168160020160006002811061031357610312611469565b5b0160009054906101000a900473ffffffffffffffffffffffffffffffffffffffff1673ffffffffffffffffffffffffffffffffffffffff1614806103ba57503373ffffffffffffffffffffffffffffffffffffffff16816002016001600281106103805761037f611469565b5b0160009054906101000a900473ffffffffffffffffffffffffffffffffffffffff1673ffffffffffffffffffffffffffffffffffffffff16145b6103f9576040517f08c379a00000000000000000000000000000000000000000000000000000000081526004016103f09061150a565b60405180910390fd5b60018314806104085750600283145b806104135750600383145b610452576040517f08c379a000000000000000000000000000000000000000000000000000000000815260040161044990611576565b60405180910390fd5b604051806040016040528084846040516020016104709291906115b7565b60405160208183030381529060405280519060200120815260200160008152506001600086815260200190815260200160002060003373ffffffffffffffffffffffffffffffffffffffff1673ffffffffffffffffffffffffffffffffffffffff16815260200190815260200160002060008201518160000155602082015181600101559050506000801b6001600086815260200190815260200160002060008360020160006002811061052757610526611469565b5b0160009054906101000a900473ffffffffffffffffffffffffffffffffffffffff1673ffffffffffffffffffffffffffffffffffffffff1673ffffffffffffffffffffffffffffffffffffffff168152602001908152602001600020600001541415801561062357506000801b600160008681526020019081526020016000206000836002016001600281106105c0576105bf611469565b5b0160009054906101000a900473ffffffffffffffffffffffffffffffffffffffff1673ffffffffffffffffffffffffffffffffffffffff1673ffffffffffffffffffffffffffffffffffffffff1681526020019081526020016000206000015414155b156106565760028160040160006101000a81548160ff021916908360038111156106505761064f611185565b5b02179055505b50505050565b600080600085815260200190815260200160002090506000600160008681526020019081526020016000206000836002016000600281106106a05761069f611469565b5b0160009054906101000a900473ffffffffffffffffffffffffffffffffffffffff1673ffffffffffffffffffffffffffffffffffffffff1673ffffffffffffffffffffffffffffffffffffffff168152602001908152602001600020905060006001600087815260200190815260200160002060008460020160016002811061072c5761072b611469565b5b0160009054906101000a900473ffffffffffffffffffffffffffffffffffffffff1673ffffffffffffffffffffffffffffffffffffffff1673ffffffffffffffffffffffffffffffffffffffff168152602001908152602001600020905060006001600088815260200190815260200160002060003373ffffffffffffffffffffffffffffffffffffffff1673ffffffffffffffffffffffffffffffffffffffff1681526020019081526020016000209050600260038111156107f2576107f1611185565b5b8460040160009054906101000a900460ff16600381111561081657610815611185565b5b14610856576040517f08c379a000000000000000000000000000000000000000000000000000000000815260040161084d9061162f565b60405180910390fd5b3373ffffffffffffffffffffffffffffffffffffffff168460020160006002811061088457610883611469565b5b0160009054906101000a900473ffffffffffffffffffffffffffffffffffffffff1673ffffffffffffffffffffffffffffffffffffffff16148061092b57503373ffffffffffffffffffffffffffffffffffffffff16846002016001600281106108f1576108f0611469565b5b0160009054906101000a900473ffffffffffffffffffffffffffffffffffffffff1673ffffffffffffffffffffffffffffffffffffffff16145b61096a576040517f08c379a00000000000000000000000000000000000000000000000000000000081526004016109619061150a565b60405180910390fd5b858560405160200161097d9291906115b7565b604051602081830303815290604052805190602001208160000154146109d8576040517f08c379a00000000000000000000000000000000000000000000000000000000081526004016109cf9061169b565b60405180910390fd5b85816001018190555060008360010154141580156109fb57506000826001015414155b15610c6f578160010154836001015403610b4b5783600201600060028110610a2657610a25611469565b5b0160009054906101000a900473ffffffffffffffffffffffffffffffffffffffff1673ffffffffffffffffffffffffffffffffffffffff166108fc85600101549081150290604051600060405180830381858888f19350505050158015610a91573d6000803e3d6000fd5b5083600201600160028110610aa957610aa8611469565b5b0160009054906101000a900473ffffffffffffffffffffffffffffffffffffffff1673ffffffffffffffffffffffffffffffffffffffff166108fc85600101549081150290604051600060405180830381858888f19350505050158015610b14573d6000803e3d6000fd5b5060038460040160006101000a81548160ff02191690836003811115610b3d57610b3c611185565b5b021790555050505050610c74565b6000826001015460026000866001015481526020019081526020016000205414610bad5784600201600160028110610b8657610b85611469565b5b0160009054906101000a900473ffffffffffffffffffffffffffffffffffffffff16610be7565b84600201600060028110610bc457610bc3611469565b5b0160009054906101000a900473ffffffffffffffffffffffffffffffffffffffff165b90508073ffffffffffffffffffffffffffffffffffffffff166108fc86600101546002610c1491906116ea565b9081150290604051600060405180830381858888f19350505050158015610c3f573d6000803e3d6000fd5b5060038560040160006101000a81548160ff02191690836003811115610c6857610c67611185565b5b0217905550505b505050505b505050565b60003411610cbc576040517f08c379a0000000000000000000000000000000000000000000000000000000008152600401610cb390611778565b60405180910390fd5b610cc4611052565b3381600060028110610cd957610cd8611469565b5b602002019073ffffffffffffffffffffffffffffffffffffffff16908173ffffffffffffffffffffffffffffffffffffffff16815250508181600160028110610d2557610d24611469565b5b602002019073ffffffffffffffffffffffffffffffffffffffff16908173ffffffffffffffffffffffffffffffffffffffff16815250506040518060800160405280600354815260200134815260200182815260200160006003811115610d8f57610d8e611185565b5b81525060008060035481526020019081526020016000206000820151816000015560208201518160010155604082015181600201906002610dd1929190611074565b5060608201518160040160006101000a81548160ff02191690836003811115610dfd57610dfc611185565b5b021790555090505060036000815480929190610e1890611798565b91905055505050565b60026020528060005260406000206000915090505481565b6000600354905090565b600080600083815260200190815260200160002090503373ffffffffffffffffffffffffffffffffffffffff1681600201600160028110610e8757610e86611469565b5b0160009054906101000a900473ffffffffffffffffffffffffffffffffffffffff1673ffffffffffffffffffffffffffffffffffffffff1614610eff576040517f08c379a0000000000000000000000000000000000000000000000000000000008152600401610ef69061182c565b60405180910390fd5b60006003811115610f1357610f12611185565b5b8160040160009054906101000a900460ff166003811115610f3757610f36611185565b5b14610f77576040517f08c379a0000000000000000000000000000000000000000000000000000000008152600401610f6e90611898565b60405180910390fd5b3481600101541115610fbe576040517f08c379a0000000000000000000000000000000000000000000000000000000008152600401610fb590611904565b60405180910390fd5b8060010154341115611021573373ffffffffffffffffffffffffffffffffffffffff166108fc826001015434610ff49190611924565b9081150290604051600060405180830381858888f1935050505015801561101f573d6000803e3d6000fd5b505b60018160040160006101000a81548160ff0219169083600381111561104957611048611185565b5b02179055505050565b6040518060400160405280600290602082028036833780820191505090505090565b82600281019282156110e0579160200282015b828111156110df5782518260006101000a81548173ffffffffffffffffffffffffffffffffffffffff021916908373ffffffffffffffffffffffffffffffffffffffff16021790555091602001919060010190611087565b5b5090506110ed91906110f1565b5090565b5b8082111561110a5760008160009055506001016110f2565b5090565b600080fd5b6000819050919050565b61112681611113565b811461113157600080fd5b50565b6000813590506111438161111d565b92915050565b60006020828403121561115f5761115e61110e565b5b600061116d84828501611134565b91505092915050565b61117f81611113565b82525050565b7f4e487b7100000000000000000000000000000000000000000000000000000000600052602160045260246000fd5b600481106111c5576111c4611185565b5b50565b60008190506111d6826111b4565b919050565b60006111e6826111c8565b9050919050565b6111f6816111db565b82525050565b60006060820190506112116000830186611176565b61121e6020830185611176565b61122b60408301846111ed565b949350505050565b600073ffffffffffffffffffffffffffffffffffffffff82169050919050565b600061125e82611233565b9050919050565b61126e81611253565b811461127957600080fd5b50565b60008135905061128b81611265565b92915050565b600080604083850312156112a8576112a761110e565b5b60006112b685828601611134565b92505060206112c78582860161127c565b9150509250929050565b6000819050919050565b6112e4816112d1565b82525050565b60006040820190506112ff60008301856112db565b61130c6020830184611176565b9392505050565b60008060006060848603121561132c5761132b61110e565b5b600061133a86828701611134565b935050602061134b86828701611134565b925050604061135c86828701611134565b9150509250925092565b600061137182611233565b9050919050565b61138181611366565b811461138c57600080fd5b50565b60008135905061139e81611378565b92915050565b6000602082840312156113ba576113b961110e565b5b60006113c88482850161138f565b91505092915050565b60006020820190506113e66000830184611176565b92915050565b600082825260208201905092915050565b7f67616d65206d75737420626520696e206a6f696e656420737461746500000000600082015250565b6000611433601c836113ec565b915061143e826113fd565b602082019050919050565b6000602082019050818103600083015261146281611426565b9050919050565b7f4e487b7100000000000000000000000000000000000000000000000000000000600052603260045260246000fd5b7f63616e206f6e6c792062652063616c6c6564206279206f6e65206f662074686560008201527f20706c6179657273000000000000000000000000000000000000000000000000602082015250565b60006114f46028836113ec565b91506114ff82611498565b604082019050919050565b60006020820190508181036000830152611523816114e7565b9050919050565b7f6d6f7665206964206d7573742062652065697468657220312c20322c20330000600082015250565b6000611560601e836113ec565b915061156b8261152a565b602082019050919050565b6000602082019050818103600083015261158f81611553565b9050919050565b6000819050919050565b6115b16115ac82611113565b611596565b82525050565b60006115c382856115a0565b6020820191506115d382846115a0565b6020820191508190509392505050565b7f67616d65206d75737420626520696e20636f6d6d697465642073746174650000600082015250565b6000611619601e836113ec565b9150611624826115e3565b602082019050919050565b600060208201905081810360008301526116488161160c565b9050919050565b7f6d6f7665496420646f6573206e6f74206d6174636820636f6d6d69746d656e74600082015250565b60006116856020836113ec565b91506116908261164f565b602082019050919050565b600060208201905081810360008301526116b481611678565b9050919050565b7f4e487b7100000000000000000000000000000000000000000000000000000000600052601160045260246000fd5b60006116f582611113565b915061170083611113565b925082820261170e81611113565b91508282048414831517611725576117246116bb565b5b5092915050565b7f6e65656420746f2073656e6420736f6d65206574686572000000000000000000600082015250565b60006117626017836113ec565b915061176d8261172c565b602082019050919050565b6000602082019050818103600083015261179181611755565b9050919050565b60006117a382611113565b91507fffffffffffffffffffffffffffffffffffffffffffffffffffffffffffffffff82036117d5576117d46116bb565b5b600182019050919050565b7f73656e646572206d757374206265207365636f6e6420706c6179657200000000600082015250565b6000611816601c836113ec565b9150611821826117e0565b602082019050919050565b6000602082019050818103600083015261184581611809565b9050919050565b7f6d75737420626520696e20637265617465642073746174650000000000000000600082015250565b60006118826018836113ec565b915061188d8261184c565b602082019050919050565b600060208201905081810360008301526118b181611875565b9050919050565b7f6e6f7420656e6f7567682065746865722073656e740000000000000000000000600082015250565b60006118ee6015836113ec565b91506118f9826118b8565b602082019050919050565b6000602082019050818103600083015261191d816118e1565b9050919050565b600061192f82611113565b915061193a83611113565b9250828203905081811115611952576119516116bb565b5b9291505056fea26469706673582212206c0803a45bfd836ed9970372319b96693b036140f221ef8bfdd940ea0a4b729864736f6c63430008110033",
  "devdoc": {
    "kind": "dev",
    "methods": {},
    "version": 1
  },
  "userdoc": {
    "kind": "user",
    "methods": {},
    "version": 1
  },
  "storageLayout": {
    "storage": [
      {
        "astId": 28,
        "contract": "contracts/RockPaperScissors.sol:RockPaperScissors",
        "label": "games",
        "offset": 0,
        "slot": "0",
        "type": "t_mapping(t_uint256,t_struct(Game)18_storage)"
      },
      {
        "astId": 35,
        "contract": "contracts/RockPaperScissors.sol:RockPaperScissors",
        "label": "moves",
        "offset": 0,
        "slot": "1",
        "type": "t_mapping(t_uint256,t_mapping(t_address,t_struct(Move)23_storage))"
      },
      {
        "astId": 39,
        "contract": "contracts/RockPaperScissors.sol:RockPaperScissors",
        "label": "winningMoves",
        "offset": 0,
        "slot": "2",
        "type": "t_mapping(t_uint256,t_uint256)"
      },
      {
        "astId": 41,
        "contract": "contracts/RockPaperScissors.sol:RockPaperScissors",
        "label": "gameId",
        "offset": 0,
        "slot": "3",
        "type": "t_uint256"
      }
    ],
    "types": {
      "t_address": {
        "encoding": "inplace",
        "label": "address",
        "numberOfBytes": "20"
      },
      "t_address_payable": {
        "encoding": "inplace",
        "label": "address payable",
        "numberOfBytes": "20"
      },
      "t_array(t_address_payable)2_storage": {
        "base": "t_address_payable",
        "encoding": "inplace",
        "label": "address payable[2]",
        "numberOfBytes": "64"
      },
      "t_bytes32": {
        "encoding": "inplace",
        "label": "bytes32",
        "numberOfBytes": "32"
      },
      "t_enum(State)6": {
        "encoding": "inplace",
        "label": "enum RockPaperScissors.State",
        "numberOfBytes": "1"
      },
      "t_mapping(t_address,t_struct(Move)23_storage)": {
        "encoding": "mapping",
        "key": "t_address",
        "label": "mapping(address => struct RockPaperScissors.Move)",
        "numberOfBytes": "32",
        "value": "t_struct(Move)23_storage"
      },
      "t_mapping(t_uint256,t_mapping(t_address,t_struct(Move)23_storage))": {
        "encoding": "mapping",
        "key": "t_uint256",
        "label": "mapping(uint256 => mapping(address => struct RockPaperScissors.Move))",
        "numberOfBytes": "32",
        "value": "t_mapping(t_address,t_struct(Move)23_storage)"
      },
      "t_mapping(t_uint256,t_struct(Game)18_storage)": {
        "encoding": "mapping",
        "key": "t_uint256",
        "label": "mapping(uint256 => struct RockPaperScissors.Game)",
        "numberOfBytes": "32",
        "value": "t_struct(Game)18_storage"
      },
      "t_mapping(t_uint256,t_uint256)": {
        "encoding": "mapping",
        "key": "t_uint256",
        "label": "mapping(uint256 => uint256)",
        "numberOfBytes": "32",
        "value": "t_uint256"
      },
      "t_struct(Game)18_storage": {
        "encoding": "inplace",
        "label": "struct RockPaperScissors.Game",
        "members": [
          {
            "astId": 8,
            "contract": "contracts/RockPaperScissors.sol:RockPaperScissors",
            "label": "id",
            "offset": 0,
            "slot": "0",
            "type": "t_uint256"
          },
          {
            "astId": 10,
            "contract": "contracts/RockPaperScissors.sol:RockPaperScissors",
            "label": "bet",
            "offset": 0,
            "slot": "1",
            "type": "t_uint256"
          },
          {
            "astId": 14,
            "contract": "contracts/RockPaperScissors.sol:RockPaperScissors",
            "label": "players",
            "offset": 0,
            "slot": "2",
            "type": "t_array(t_address_payable)2_storage"
          },
          {
            "astId": 17,
            "contract": "contracts/RockPaperScissors.sol:RockPaperScissors",
            "label": "state",
            "offset": 0,
            "slot": "4",
            "type": "t_enum(State)6"
          }
        ],
        "numberOfBytes": "160"
      },
      "t_struct(Move)23_storage": {
        "encoding": "inplace",
        "label": "struct RockPaperScissors.Move",
        "members": [
          {
            "astId": 20,
            "contract": "contracts/RockPaperScissors.sol:RockPaperScissors",
            "label": "hash",
            "offset": 0,
            "slot": "0",
            "type": "t_bytes32"
          },
          {
            "astId": 22,
            "contract": "contracts/RockPaperScissors.sol:RockPaperScissors",
            "label": "value",
            "offset": 0,
            "slot": "1",
            "type": "t_uint256"
          }
        ],
        "numberOfBytes": "64"
      },
      "t_uint256": {
        "encoding": "inplace",
        "label": "uint256",
        "numberOfBytes": "32"
      }
    }
  }
}