{
  "address": "0xe7f1725E7734CE288F8367e1Bb143E90bb3F0512",
  "abi": [
    {
      "inputs": [
        {
          "internalType": "address",
          "name": "_tContract",
          "type": "address"
        }
      ],
      "stateMutability": "nonpayable",
      "type": "constructor"
    },
    {
      "inputs": [],
      "name": "GameIsNotInJoinedState",
      "type": "error"
    },
    {
      "inputs": [],
      "name": "LowStakeAmount",
      "type": "error"
    },
    {
      "inputs": [],
      "name": "MoveIdNotMatched",
      "type": "error"
    },
    {
      "inputs": [],
      "name": "NotInComittedState",
      "type": "error"
    },
    {
      "inputs": [],
      "name": "NotInCreatedState",
      "type": "error"
    },
    {
      "inputs": [],
      "name": "OnlyPlayersCanCall",
      "type": "error"
    },
    {
      "inputs": [],
      "name": "PaymentError",
      "type": "error"
    },
    {
      "inputs": [],
      "name": "UnapprovedMove",
      "type": "error"
    },
    {
      "inputs": [
        {
          "internalType": "uint256",
          "name": "_gameId",
          "type": "uint256"
        },
        {
          "internalType": "uint256",
          "name": "moveId",
          "type": "uint256"
        },
        {
          "internalType": "uint256",
          "name": "salt",
          "type": "uint256"
        }
      ],
      "name": "commitMove",
      "outputs": [],
      "stateMutability": "nonpayable",
      "type": "function"
    },
    {
      "inputs": [
        {
          "internalType": "uint256",
          "name": "_sAmount",
          "type": "uint256"
        }
      ],
      "name": "createGame",
      "outputs": [],
      "stateMutability": "payable",
      "type": "function"
    },
    {
      "inputs": [],
      "name": "getAvailableGame",
      "outputs": [
        {
          "components": [
            {
              "internalType": "uint256",
              "name": "id",
              "type": "uint256"
            },
            {
              "internalType": "uint256",
              "name": "stakeAmount",
              "type": "uint256"
            },
            {
              "internalType": "address[2]",
              "name": "players",
              "type": "address[2]"
            },
            {
              "internalType": "enum RockPaperScissors.State",
              "name": "state",
              "type": "uint8"
            }
          ],
          "internalType": "struct RockPaperScissors.Game[]",
          "name": "",
          "type": "tuple[]"
        }
      ],
      "stateMutability": "view",
      "type": "function"
    },
    {
      "inputs": [],
      "name": "getGameId",
      "outputs": [
        {
          "internalType": "uint256",
          "name": "",
          "type": "uint256"
        }
      ],
      "stateMutability": "view",
      "type": "function"
    },
    {
      "inputs": [
        {
          "internalType": "uint256",
          "name": "_id",
          "type": "uint256"
        }
      ],
      "name": "getIdToGame",
      "outputs": [
        {
          "components": [
            {
              "internalType": "uint256",
              "name": "id",
              "type": "uint256"
            },
            {
              "internalType": "uint256",
              "name": "stakeAmount",
              "type": "uint256"
            },
            {
              "internalType": "address[2]",
              "name": "players",
              "type": "address[2]"
            },
            {
              "internalType": "enum RockPaperScissors.State",
              "name": "state",
              "type": "uint8"
            }
          ],
          "internalType": "struct RockPaperScissors.Game",
          "name": "",
          "type": "tuple"
        }
      ],
      "stateMutability": "view",
      "type": "function"
    },
    {
      "inputs": [
        {
          "internalType": "address",
          "name": "_player",
          "type": "address"
        }
      ],
      "name": "getPlayersComitedGamed",
      "outputs": [
        {
          "components": [
            {
              "internalType": "uint256",
              "name": "id",
              "type": "uint256"
            },
            {
              "internalType": "uint256",
              "name": "stakeAmount",
              "type": "uint256"
            },
            {
              "internalType": "address[2]",
              "name": "players",
              "type": "address[2]"
            },
            {
              "internalType": "enum RockPaperScissors.State",
              "name": "state",
              "type": "uint8"
            }
          ],
          "internalType": "struct RockPaperScissors.Game[]",
          "name": "",
          "type": "tuple[]"
        }
      ],
      "stateMutability": "view",
      "type": "function"
    },
    {
      "inputs": [
        {
          "internalType": "address",
          "name": "_player",
          "type": "address"
        }
      ],
      "name": "getPlayersJoinedGamed",
      "outputs": [
        {
          "components": [
            {
              "internalType": "uint256",
              "name": "id",
              "type": "uint256"
            },
            {
              "internalType": "uint256",
              "name": "stakeAmount",
              "type": "uint256"
            },
            {
              "internalType": "address[2]",
              "name": "players",
              "type": "address[2]"
            },
            {
              "internalType": "enum RockPaperScissors.State",
              "name": "state",
              "type": "uint8"
            }
          ],
          "internalType": "struct RockPaperScissors.Game[]",
          "name": "",
          "type": "tuple[]"
        }
      ],
      "stateMutability": "view",
      "type": "function"
    },
    {
      "inputs": [],
      "name": "getRevealedGamed",
      "outputs": [
        {
          "components": [
            {
              "internalType": "uint256",
              "name": "id",
              "type": "uint256"
            },
            {
              "internalType": "uint256",
              "name": "stakeAmount",
              "type": "uint256"
            },
            {
              "internalType": "address[2]",
              "name": "players",
              "type": "address[2]"
            },
            {
              "internalType": "enum RockPaperScissors.State",
              "name": "state",
              "type": "uint8"
            }
          ],
          "internalType": "struct RockPaperScissors.Game[]",
          "name": "",
          "type": "tuple[]"
        }
      ],
      "stateMutability": "view",
      "type": "function"
    },
    {
      "inputs": [
        {
          "internalType": "address",
          "name": "_user",
          "type": "address"
        }
      ],
      "name": "getUserCreatedGame",
      "outputs": [
        {
          "components": [
            {
              "internalType": "uint256",
              "name": "id",
              "type": "uint256"
            },
            {
              "internalType": "uint256",
              "name": "stakeAmount",
              "type": "uint256"
            },
            {
              "internalType": "address[2]",
              "name": "players",
              "type": "address[2]"
            },
            {
              "internalType": "enum RockPaperScissors.State",
              "name": "state",
              "type": "uint8"
            }
          ],
          "internalType": "struct RockPaperScissors.Game[]",
          "name": "",
          "type": "tuple[]"
        }
      ],
      "stateMutability": "view",
      "type": "function"
    },
    {
      "inputs": [
        {
          "internalType": "uint256",
          "name": "_gameId",
          "type": "uint256"
        }
      ],
      "name": "joinGame",
      "outputs": [],
      "stateMutability": "payable",
      "type": "function"
    },
    {
      "inputs": [
        {
          "internalType": "uint256",
          "name": "_gameId",
          "type": "uint256"
        },
        {
          "internalType": "uint256",
          "name": "moveId",
          "type": "uint256"
        },
        {
          "internalType": "uint256",
          "name": "salt",
          "type": "uint256"
        }
      ],
      "name": "revealMove",
      "outputs": [],
      "stateMutability": "nonpayable",
      "type": "function"
    },
    {
      "inputs": [
        {
          "internalType": "uint256",
          "name": "",
          "type": "uint256"
        }
      ],
      "name": "winningMoves",
      "outputs": [
        {
          "internalType": "uint256",
          "name": "",
          "type": "uint256"
        }
      ],
      "stateMutability": "view",
      "type": "function"
    }
  ],
  "transactionHash": "0xdbd861309473f7440c6e65bd717b55d08d18d1f61bcd5c5cbcca0d9a8488d570",
  "args": [
    "0x5FbDB2315678afecb367f032d93F642f64180aa3"
  ],
  "numDeployments": 1,
  "solcInputHash": "05faafe23d0009cac0783768182a5e48",
  "bytecode": "0x60806040523480156200001157600080fd5b5060405162002eba38038062002eba833981810160405281019062000037919062000136565b600380600060018152602001908152602001600020819055506001600360006002815260200190815260200160002081905550600260036000600381526020019081526020016000208190555080600560006101000a81548173ffffffffffffffffffffffffffffffffffffffff021916908373ffffffffffffffffffffffffffffffffffffffff1602179055505062000168565b600080fd5b600073ffffffffffffffffffffffffffffffffffffffff82169050919050565b6000620000fe82620000d1565b9050919050565b6200011081620000f1565b81146200011c57600080fd5b50565b600081519050620001308162000105565b92915050565b6000602082840312156200014f576200014e620000cc565b5b60006200015f848285016200011f565b91505092915050565b612d4280620001786000396000f3fe6080604052600436106100a75760003560e01c80639ac450cd116100645780639ac450cd146101d1578063a503813e146101fc578063b93c1ad214610227578063c0bd835114610264578063efaa55a01461028f578063f698cd01146102ab576100a7565b8063025ed496146100ac57806334d3ce4b146100e9578063354fe54a1461011257806348e837b91461013b5780634b4cbb451461015757806383a631d314610194575b600080fd5b3480156100b857600080fd5b506100d360048036038101906100ce919061270e565b6102e8565b6040516100e0919061297a565b60405180910390f35b3480156100f557600080fd5b50610110600480360381019061010b91906129c8565b6107ac565b005b34801561011e57600080fd5b50610139600480360381019061013491906129c8565b610b9f565b005b61015560048036038101906101509190612a1b565b611304565b005b34801561016357600080fd5b5061017e60048036038101906101799190612a1b565b6115d1565b60405161018b9190612a57565b60405180910390f35b3480156101a057600080fd5b506101bb60048036038101906101b6919061270e565b6115e9565b6040516101c8919061297a565b60405180910390f35b3480156101dd57600080fd5b506101e661194d565b6040516101f3919061297a565b60405180910390f35b34801561020857600080fd5b50610211611be3565b60405161021e919061297a565b60405180910390f35b34801561023357600080fd5b5061024e60048036038101906102499190612a1b565b611ee9565b60405161025b9190612ac7565b60405180910390f35b34801561027057600080fd5b50610279611fdf565b6040516102869190612a57565b60405180910390f35b6102a960048036038101906102a49190612a1b565b611ff0565b005b3480156102b757600080fd5b506102d260048036038101906102cd919061270e565b6121df565b6040516102df919061297a565b60405180910390f35b606060006102f6600461258b565b905060008060005b83811015610498576002600381111561031a5761031961282b565b5b60008060018461032a9190612b11565b815260200190815260200160002060040160009054906101000a900460ff16600381111561035b5761035a61282b565b5b03610485578573ffffffffffffffffffffffffffffffffffffffff166000806001846103879190612b11565b81526020019081526020016000206002016000600281106103ab576103aa612b45565b5b0160009054906101000a900473ffffffffffffffffffffffffffffffffffffffff1673ffffffffffffffffffffffffffffffffffffffff16148061046f57508573ffffffffffffffffffffffffffffffffffffffff166000806001846104119190612b11565b815260200190815260200160002060020160016002811061043557610434612b45565b5b0160009054906101000a900473ffffffffffffffffffffffffffffffffffffffff1673ffffffffffffffffffffffffffffffffffffffff16145b15610484576001836104819190612b11565b92505b5b808061049090612b74565b9150506102fe565b5060008267ffffffffffffffff8111156104b5576104b4612bbc565b5b6040519080825280602002602001820160405280156104ee57816020015b6104db6125af565b8152602001906001900390816104d35790505b50905060005b8481101561079f57600260038111156105105761050f61282b565b5b6000806001846105209190612b11565b815260200190815260200160002060040160009054906101000a900460ff1660038111156105515761055061282b565b5b0361078c578673ffffffffffffffffffffffffffffffffffffffff1660008060018461057d9190612b11565b81526020019081526020016000206002016000600281106105a1576105a0612b45565b5b0160009054906101000a900473ffffffffffffffffffffffffffffffffffffffff1673ffffffffffffffffffffffffffffffffffffffff16148061066557508673ffffffffffffffffffffffffffffffffffffffff166000806001846106079190612b11565b815260200190815260200160002060020160016002811061062b5761062a612b45565b5b0160009054906101000a900473ffffffffffffffffffffffffffffffffffffffff1673ffffffffffffffffffffffffffffffffffffffff16145b1561078b5760008060018361067a9190612b11565b8152602001908152602001600020604051806080016040529081600082015481526020016001820154815260200160028201600280602002604051908101604052809291908260028015610719576020028201915b8160009054906101000a900473ffffffffffffffffffffffffffffffffffffffff1673ffffffffffffffffffffffffffffffffffffffff16815260200190600101908083116106cf575b505050505081526020016004820160009054906101000a900460ff1660038111156107475761074661282b565b5b60038111156107595761075861282b565b5b815250508284815181106107705761076f612b45565b5b60200260200101819052506001836107889190612b11565b92505b5b808061079790612b74565b9150506104f4565b5080945050505050919050565b60008060008581526020019081526020016000209050600160038111156107d6576107d561282b565b5b8160040160009054906101000a900460ff1660038111156107fa576107f961282b565b5b14610831576040517f11ec21f400000000000000000000000000000000000000000000000000000000815260040160405180910390fd5b3373ffffffffffffffffffffffffffffffffffffffff168160020160006002811061085f5761085e612b45565b5b0160009054906101000a900473ffffffffffffffffffffffffffffffffffffffff1673ffffffffffffffffffffffffffffffffffffffff1614158061090857503373ffffffffffffffffffffffffffffffffffffffff16816002016001600281106108cd576108cc612b45565b5b0160009054906101000a900473ffffffffffffffffffffffffffffffffffffffff1673ffffffffffffffffffffffffffffffffffffffff1614155b1561093f576040517f571b131800000000000000000000000000000000000000000000000000000000815260040160405180910390fd5b60018314158015610951575060028314155b801561095e575060038314155b15610995576040517fb2b85f1500000000000000000000000000000000000000000000000000000000815260040160405180910390fd5b604051806040016040528084846040516020016109b3929190612c0c565b60405160208183030381529060405280519060200120815260200160008152506002600086815260200190815260200160002060003373ffffffffffffffffffffffffffffffffffffffff1673ffffffffffffffffffffffffffffffffffffffff16815260200190815260200160002060008201518160000155602082015181600101559050506000801b60026000868152602001908152602001600020600083600201600060028110610a6a57610a69612b45565b5b0160009054906101000a900473ffffffffffffffffffffffffffffffffffffffff1673ffffffffffffffffffffffffffffffffffffffff1673ffffffffffffffffffffffffffffffffffffffff1681526020019081526020016000206000015414158015610b6657506000801b60026000868152602001908152602001600020600083600201600160028110610b0357610b02612b45565b5b0160009054906101000a900473ffffffffffffffffffffffffffffffffffffffff1673ffffffffffffffffffffffffffffffffffffffff1673ffffffffffffffffffffffffffffffffffffffff1681526020019081526020016000206000015414155b15610b995760028160040160006101000a81548160ff02191690836003811115610b9357610b9261282b565b5b02179055505b50505050565b60008060008581526020019081526020016000209050600060026000868152602001908152602001600020600083600201600060028110610be357610be2612b45565b5b0160009054906101000a900473ffffffffffffffffffffffffffffffffffffffff1673ffffffffffffffffffffffffffffffffffffffff1673ffffffffffffffffffffffffffffffffffffffff168152602001908152602001600020604051806040016040529081600082015481526020016001820154815250509050600060026000878152602001908152602001600020600084600201600160028110610c8e57610c8d612b45565b5b0160009054906101000a900473ffffffffffffffffffffffffffffffffffffffff1673ffffffffffffffffffffffffffffffffffffffff1673ffffffffffffffffffffffffffffffffffffffff16815260200190815260200160002060405180604001604052908160008201548152602001600182015481525050905060006002600088815260200190815260200160002060003373ffffffffffffffffffffffffffffffffffffffff1673ffffffffffffffffffffffffffffffffffffffff16815260200190815260200160002060405180604001604052908160008201548152602001600182015481525050905060026003811115610d9257610d9161282b565b5b8460040160009054906101000a900460ff166003811115610db657610db561282b565b5b14610ded576040517fb8cf966b00000000000000000000000000000000000000000000000000000000815260040160405180910390fd5b3373ffffffffffffffffffffffffffffffffffffffff1684600201600060028110610e1b57610e1a612b45565b5b0160009054906101000a900473ffffffffffffffffffffffffffffffffffffffff1673ffffffffffffffffffffffffffffffffffffffff16141580610ec457503373ffffffffffffffffffffffffffffffffffffffff1684600201600160028110610e8957610e88612b45565b5b0160009054906101000a900473ffffffffffffffffffffffffffffffffffffffff1673ffffffffffffffffffffffffffffffffffffffff1614155b15610efb576040517f571b131800000000000000000000000000000000000000000000000000000000815260040160405180910390fd5b8585604051602001610f0e929190612c0c565b60405160208183030381529060405280519060200120816000015114610f60576040517f8b7ff8e500000000000000000000000000000000000000000000000000000000815260040160405180910390fd5b858160200181815250506000836020015114158015610f8457506000826020015114155b156112fa57816020015183602001510361118857600560009054906101000a900473ffffffffffffffffffffffffffffffffffffffff1673ffffffffffffffffffffffffffffffffffffffff1663a9059cbb85600201600060028110610fed57610fec612b45565b5b0160009054906101000a900473ffffffffffffffffffffffffffffffffffffffff1686600101546040518363ffffffff1660e01b8152600401611031929190612c47565b6020604051808303816000875af1158015611050573d6000803e3d6000fd5b505050506040513d601f19601f820116820180604052508101906110749190612ca8565b50600560009054906101000a900473ffffffffffffffffffffffffffffffffffffffff1673ffffffffffffffffffffffffffffffffffffffff1663a9059cbb856002016001600281106110ca576110c9612b45565b5b0160009054906101000a900473ffffffffffffffffffffffffffffffffffffffff1686600101546040518363ffffffff1660e01b815260040161110e929190612c47565b6020604051808303816000875af115801561112d573d6000803e3d6000fd5b505050506040513d601f19601f820116820180604052508101906111519190612ca8565b5060038460040160006101000a81548160ff0219169083600381111561117a5761117961282b565b5b0217905550505050506112ff565b60008260200151600360008660200151815260200190815260200160002054146111ea57846002016001600281106111c3576111c2612b45565b5b0160009054906101000a900473ffffffffffffffffffffffffffffffffffffffff16611224565b8460020160006002811061120157611200612b45565b5b0160009054906101000a900473ffffffffffffffffffffffffffffffffffffffff165b9050600560009054906101000a900473ffffffffffffffffffffffffffffffffffffffff1673ffffffffffffffffffffffffffffffffffffffff1663a9059cbb8287600101546040518363ffffffff1660e01b8152600401611287929190612c47565b6020604051808303816000875af11580156112a6573d6000803e3d6000fd5b505050506040513d601f19601f820116820180604052508101906112ca9190612ca8565b5060038560040160006101000a81548160ff021916908360038111156112f3576112f261282b565b5b0217905550505b505050505b505050565b60018110806113135750600081145b1561134a576040517fa1b0d46900000000000000000000000000000000000000000000000000000000815260040160405180910390fd5b6113526125ef565b338160006002811061136757611366612b45565b5b602002019073ffffffffffffffffffffffffffffffffffffffff16908173ffffffffffffffffffffffffffffffffffffffff16815250506113a86004612599565b6000600560009054906101000a900473ffffffffffffffffffffffffffffffffffffffff1673ffffffffffffffffffffffffffffffffffffffff166323b872dd3330866040518463ffffffff1660e01b815260040161140993929190612cd5565b6020604051808303816000875af1158015611428573d6000803e3d6000fd5b505050506040513d601f19601f8201168201806040525081019061144c9190612ca8565b905080611485576040517fabab8fc900000000000000000000000000000000000000000000000000000000815260040160405180910390fd5b6000604051806080016040528061149c600461258b565b8152602001858152602001848152602001600060038111156114c1576114c061282b565b5b8152509050806000806114d4600461258b565b8152602001908152602001600020600082015181600001556020820151816001015560408201518160020190600261150d929190612611565b5060608201518160040160006101000a81548160ff021916908360038111156115395761153861282b565b5b021790555090505060018190806001815401808255809150506001900390600052602060002090600502016000909190919091506000820151816000015560208201518160010155604082015181600201906002611598929190612611565b5060608201518160040160006101000a81548160ff021916908360038111156115c4576115c361282b565b5b0217905550505050505050565b60036020528060005260406000206000915090505481565b606060006115f7600461258b565b9050600080600090505b828110156116b4578473ffffffffffffffffffffffffffffffffffffffff166000806001846116309190612b11565b815260200190815260200160002060020160006002811061165457611653612b45565b5b0160009054906101000a900473ffffffffffffffffffffffffffffffffffffffff1673ffffffffffffffffffffffffffffffffffffffff16036116a15760018261169e9190612b11565b91505b80806116ac90612b74565b915050611601565b506000810361171b57600067ffffffffffffffff8111156116d8576116d7612bbc565b5b60405190808252806020026020018201604052801561171157816020015b6116fe6125af565b8152602001906001900390816116f65790505b5092505050611948565b60008167ffffffffffffffff81111561173757611736612bbc565b5b60405190808252806020026020018201604052801561177057816020015b61175d6125af565b8152602001906001900390816117555790505b509050600080600090505b8481101561193f578673ffffffffffffffffffffffffffffffffffffffff166000806001846117aa9190612b11565b81526020019081526020016000206002016000600281106117ce576117cd612b45565b5b0160009054906101000a900473ffffffffffffffffffffffffffffffffffffffff1673ffffffffffffffffffffffffffffffffffffffff160361192c5760008060018361181b9190612b11565b81526020019081526020016000206040518060800160405290816000820154815260200160018201548152602001600282016002806020026040519081016040528092919082600280156118ba576020028201915b8160009054906101000a900473ffffffffffffffffffffffffffffffffffffffff1673ffffffffffffffffffffffffffffffffffffffff1681526020019060010190808311611870575b505050505081526020016004820160009054906101000a900460ff1660038111156118e8576118e761282b565b5b60038111156118fa576118f961282b565b5b8152505083838151811061191157611910612b45565b5b60200260200101819052506001826119299190612b11565b91505b808061193790612b74565b91505061177b565b50819450505050505b919050565b6060600061195b600461258b565b905060008060005b838110156119e75760038081111561197e5761197d61282b565b5b60008060018461198e9190612b11565b815260200190815260200160002060040160009054906101000a900460ff1660038111156119bf576119be61282b565b5b036119d4576001836119d19190612b11565b92505b80806119df90612b74565b915050611963565b5060008267ffffffffffffffff811115611a0457611a03612bbc565b5b604051908082528060200260200182016040528015611a3d57816020015b611a2a6125af565b815260200190600190039081611a225790505b50905060005b84811015611bd857600380811115611a5e57611a5d61282b565b5b600080600184611a6e9190612b11565b815260200190815260200160002060040160009054906101000a900460ff166003811115611a9f57611a9e61282b565b5b03611bc557600080600183611ab49190612b11565b8152602001908152602001600020604051806080016040529081600082015481526020016001820154815260200160028201600280602002604051908101604052809291908260028015611b53576020028201915b8160009054906101000a900473ffffffffffffffffffffffffffffffffffffffff1673ffffffffffffffffffffffffffffffffffffffff1681526020019060010190808311611b09575b505050505081526020016004820160009054906101000a900460ff166003811115611b8157611b8061282b565b5b6003811115611b9357611b9261282b565b5b81525050828481518110611baa57611ba9612b45565b5b6020026020010181905250600183611bc29190612b11565b92505b8080611bd090612b74565b915050611a43565b508094505050505090565b60606000611bf1600461258b565b9050600080600090505b82811015611c805760006003811115611c1757611c1661282b565b5b600080600184611c279190612b11565b815260200190815260200160002060040160009054906101000a900460ff166003811115611c5857611c5761282b565b5b03611c6d57600182611c6a9190612b11565b91505b8080611c7890612b74565b915050611bfb565b5060008103611ce757600067ffffffffffffffff811115611ca457611ca3612bbc565b5b604051908082528060200260200182016040528015611cdd57816020015b611cca6125af565b815260200190600190039081611cc25790505b5092505050611ee6565b60008167ffffffffffffffff811115611d0357611d02612bbc565b5b604051908082528060200260200182016040528015611d3c57816020015b611d296125af565b815260200190600190039081611d215790505b509050600080600090505b84811015611edd5760006003811115611d6357611d6261282b565b5b600080600184611d739190612b11565b815260200190815260200160002060040160009054906101000a900460ff166003811115611da457611da361282b565b5b03611eca57600080600183611db99190612b11565b8152602001908152602001600020604051806080016040529081600082015481526020016001820154815260200160028201600280602002604051908101604052809291908260028015611e58576020028201915b8160009054906101000a900473ffffffffffffffffffffffffffffffffffffffff1673ffffffffffffffffffffffffffffffffffffffff1681526020019060010190808311611e0e575b505050505081526020016004820160009054906101000a900460ff166003811115611e8657611e8561282b565b5b6003811115611e9857611e9761282b565b5b81525050838381518110611eaf57611eae612b45565b5b6020026020010181905250600182611ec79190612b11565b91505b8080611ed590612b74565b915050611d47565b50819450505050505b90565b611ef16125af565b600080838152602001908152602001600020604051806080016040529081600082015481526020016001820154815260200160028201600280602002604051908101604052809291908260028015611f94576020028201915b8160009054906101000a900473ffffffffffffffffffffffffffffffffffffffff1673ffffffffffffffffffffffffffffffffffffffff1681526020019060010190808311611f4a575b505050505081526020016004820160009054906101000a900460ff166003811115611fc257611fc161282b565b5b6003811115611fd457611fd361282b565b5b815250509050919050565b6000611feb600461258b565b905090565b600080600083815260200190815260200160002090506000600381111561201a5761201961282b565b5b8160040160009054906101000a900460ff16600381111561203e5761203d61282b565b5b14612075576040517f4c1777d800000000000000000000000000000000000000000000000000000000815260040160405180910390fd5b338160020160016002811061208d5761208c612b45565b5b0160006101000a81548173ffffffffffffffffffffffffffffffffffffffff021916908373ffffffffffffffffffffffffffffffffffffffff1602179055506000600560009054906101000a900473ffffffffffffffffffffffffffffffffffffffff1673ffffffffffffffffffffffffffffffffffffffff166323b872dd333085600101546040518463ffffffff1660e01b815260040161213193929190612cd5565b6020604051808303816000875af1158015612150573d6000803e3d6000fd5b505050506040513d601f19601f820116820180604052508101906121749190612ca8565b9050806121ad576040517fabab8fc900000000000000000000000000000000000000000000000000000000815260040160405180910390fd5b60018260040160006101000a81548160ff021916908360038111156121d5576121d461282b565b5b0217905550505050565b606060006121ed600461258b565b905060008060005b83811015612303578573ffffffffffffffffffffffffffffffffffffffff166000806001846122249190612b11565b815260200190815260200160002060020160016002811061224857612247612b45565b5b0160009054906101000a900473ffffffffffffffffffffffffffffffffffffffff1673ffffffffffffffffffffffffffffffffffffffff16036122f057600160038111156122995761229861282b565b5b6000806001846122a99190612b11565b815260200190815260200160002060040160009054906101000a900460ff1660038111156122da576122d961282b565b5b036122ef576001836122ec9190612b11565b92505b5b80806122fb90612b74565b9150506121f5565b5060008267ffffffffffffffff8111156123205761231f612bbc565b5b60405190808252806020026020018201604052801561235957816020015b6123466125af565b81526020019060019003908161233e5790505b50905060005b8481101561257e578673ffffffffffffffffffffffffffffffffffffffff1660008060018461238e9190612b11565b81526020019081526020016000206002016001600281106123b2576123b1612b45565b5b0160009054906101000a900473ffffffffffffffffffffffffffffffffffffffff1673ffffffffffffffffffffffffffffffffffffffff160361256b57600160038111156124035761240261282b565b5b6000806001846124139190612b11565b815260200190815260200160002060040160009054906101000a900460ff1660038111156124445761244361282b565b5b0361256a576000806001836124599190612b11565b81526020019081526020016000206040518060800160405290816000820154815260200160018201548152602001600282016002806020026040519081016040528092919082600280156124f8576020028201915b8160009054906101000a900473ffffffffffffffffffffffffffffffffffffffff1673ffffffffffffffffffffffffffffffffffffffff16815260200190600101908083116124ae575b505050505081526020016004820160009054906101000a900460ff1660038111156125265761252561282b565b5b60038111156125385761253761282b565b5b8152505082848151811061254f5761254e612b45565b5b60200260200101819052506001836125679190612b11565b92505b5b808061257690612b74565b91505061235f565b5080945050505050919050565b600081600001549050919050565b6001816000016000828254019250508190555050565b604051806080016040528060008152602001600081526020016125d06125ef565b8152602001600060038111156125e9576125e861282b565b5b81525090565b6040518060400160405280600290602082028036833780820191505090505090565b826002810192821561267d579160200282015b8281111561267c5782518260006101000a81548173ffffffffffffffffffffffffffffffffffffffff021916908373ffffffffffffffffffffffffffffffffffffffff16021790555091602001919060010190612624565b5b50905061268a919061268e565b5090565b5b808211156126a757600081600090555060010161268f565b5090565b600080fd5b600073ffffffffffffffffffffffffffffffffffffffff82169050919050565b60006126db826126b0565b9050919050565b6126eb816126d0565b81146126f657600080fd5b50565b600081359050612708816126e2565b92915050565b600060208284031215612724576127236126ab565b5b6000612732848285016126f9565b91505092915050565b600081519050919050565b600082825260208201905092915050565b6000819050602082019050919050565b6000819050919050565b61277a81612767565b82525050565b600060029050919050565b600081905092915050565b6000819050919050565b6127a9816126d0565b82525050565b60006127bb83836127a0565b60208301905092915050565b6000602082019050919050565b6127dd81612780565b6127e7818461278b565b92506127f282612796565b8060005b8381101561282357815161280a87826127af565b9650612815836127c7565b9250506001810190506127f6565b505050505050565b7f4e487b7100000000000000000000000000000000000000000000000000000000600052602160045260246000fd5b6004811061286b5761286a61282b565b5b50565b600081905061287c8261285a565b919050565b600061288c8261286e565b9050919050565b61289c81612881565b82525050565b60a0820160008201516128b86000850182612771565b5060208201516128cb6020850182612771565b5060408201516128de60408501826127d4565b5060608201516128f16080850182612893565b50505050565b600061290383836128a2565b60a08301905092915050565b6000602082019050919050565b60006129278261273b565b6129318185612746565b935061293c83612757565b8060005b8381101561296d57815161295488826128f7565b975061295f8361290f565b925050600181019050612940565b5085935050505092915050565b60006020820190508181036000830152612994818461291c565b905092915050565b6129a581612767565b81146129b057600080fd5b50565b6000813590506129c28161299c565b92915050565b6000806000606084860312156129e1576129e06126ab565b5b60006129ef868287016129b3565b9350506020612a00868287016129b3565b9250506040612a11868287016129b3565b9150509250925092565b600060208284031215612a3157612a306126ab565b5b6000612a3f848285016129b3565b91505092915050565b612a5181612767565b82525050565b6000602082019050612a6c6000830184612a48565b92915050565b60a082016000820151612a886000850182612771565b506020820151612a9b6020850182612771565b506040820151612aae60408501826127d4565b506060820151612ac16080850182612893565b50505050565b600060a082019050612adc6000830184612a72565b92915050565b7f4e487b7100000000000000000000000000000000000000000000000000000000600052601160045260246000fd5b6000612b1c82612767565b9150612b2783612767565b9250828201905080821115612b3f57612b3e612ae2565b5b92915050565b7f4e487b7100000000000000000000000000000000000000000000000000000000600052603260045260246000fd5b6000612b7f82612767565b91507fffffffffffffffffffffffffffffffffffffffffffffffffffffffffffffffff8203612bb157612bb0612ae2565b5b600182019050919050565b7f4e487b7100000000000000000000000000000000000000000000000000000000600052604160045260246000fd5b6000819050919050565b612c06612c0182612767565b612beb565b82525050565b6000612c188285612bf5565b602082019150612c288284612bf5565b6020820191508190509392505050565b612c41816126d0565b82525050565b6000604082019050612c5c6000830185612c38565b612c696020830184612a48565b9392505050565b60008115159050919050565b612c8581612c70565b8114612c9057600080fd5b50565b600081519050612ca281612c7c565b92915050565b600060208284031215612cbe57612cbd6126ab565b5b6000612ccc84828501612c93565b91505092915050565b6000606082019050612cea6000830186612c38565b612cf76020830185612c38565b612d046040830184612a48565b94935050505056fea264697066735822122031b5c3c2999ef46f97ea4cc45e1eb6cdb50276a97b34f7a820114b3cf821585c64736f6c63430008110033",
  "devdoc": {
    "kind": "dev",
    "methods": {},
    "version": 1
  },
  "userdoc": {
    "kind": "user",
    "methods": {},
    "version": 1
  },
  "storageLayout": {
    "storage": [
      {
        "astId": 186,
        "contract": "contracts/RockPaperScissors.sol:RockPaperScissors",
        "label": "idToGame",
        "offset": 0,
        "slot": "0",
        "type": "t_mapping(t_uint256,t_struct(Game)176_storage)"
      },
      {
        "astId": 190,
        "contract": "contracts/RockPaperScissors.sol:RockPaperScissors",
        "label": "games",
        "offset": 0,
        "slot": "1",
        "type": "t_array(t_struct(Game)176_storage)dyn_storage"
      },
      {
        "astId": 197,
        "contract": "contracts/RockPaperScissors.sol:RockPaperScissors",
        "label": "moves",
        "offset": 0,
        "slot": "2",
        "type": "t_mapping(t_uint256,t_mapping(t_address,t_struct(Move)181_storage))"
      },
      {
        "astId": 201,
        "contract": "contracts/RockPaperScissors.sol:RockPaperScissors",
        "label": "winningMoves",
        "offset": 0,
        "slot": "3",
        "type": "t_mapping(t_uint256,t_uint256)"
      },
      {
        "astId": 204,
        "contract": "contracts/RockPaperScissors.sol:RockPaperScissors",
        "label": "gameId",
        "offset": 0,
        "slot": "4",
        "type": "t_struct(Counter)71_storage"
      },
      {
        "astId": 207,
        "contract": "contracts/RockPaperScissors.sol:RockPaperScissors",
        "label": "tokenContract",
        "offset": 0,
        "slot": "5",
        "type": "t_contract(IERC20)68"
      }
    ],
    "types": {
      "t_address": {
        "encoding": "inplace",
        "label": "address",
        "numberOfBytes": "20"
      },
      "t_array(t_address)2_storage": {
        "base": "t_address",
        "encoding": "inplace",
        "label": "address[2]",
        "numberOfBytes": "64"
      },
      "t_array(t_struct(Game)176_storage)dyn_storage": {
        "base": "t_struct(Game)176_storage",
        "encoding": "dynamic_array",
        "label": "struct RockPaperScissors.Game[]",
        "numberOfBytes": "32"
      },
      "t_bytes32": {
        "encoding": "inplace",
        "label": "bytes32",
        "numberOfBytes": "32"
      },
      "t_contract(IERC20)68": {
        "encoding": "inplace",
        "label": "contract IERC20",
        "numberOfBytes": "20"
      },
      "t_enum(State)164": {
        "encoding": "inplace",
        "label": "enum RockPaperScissors.State",
        "numberOfBytes": "1"
      },
      "t_mapping(t_address,t_struct(Move)181_storage)": {
        "encoding": "mapping",
        "key": "t_address",
        "label": "mapping(address => struct RockPaperScissors.Move)",
        "numberOfBytes": "32",
        "value": "t_struct(Move)181_storage"
      },
      "t_mapping(t_uint256,t_mapping(t_address,t_struct(Move)181_storage))": {
        "encoding": "mapping",
        "key": "t_uint256",
        "label": "mapping(uint256 => mapping(address => struct RockPaperScissors.Move))",
        "numberOfBytes": "32",
        "value": "t_mapping(t_address,t_struct(Move)181_storage)"
      },
      "t_mapping(t_uint256,t_struct(Game)176_storage)": {
        "encoding": "mapping",
        "key": "t_uint256",
        "label": "mapping(uint256 => struct RockPaperScissors.Game)",
        "numberOfBytes": "32",
        "value": "t_struct(Game)176_storage"
      },
      "t_mapping(t_uint256,t_uint256)": {
        "encoding": "mapping",
        "key": "t_uint256",
        "label": "mapping(uint256 => uint256)",
        "numberOfBytes": "32",
        "value": "t_uint256"
      },
      "t_struct(Counter)71_storage": {
        "encoding": "inplace",
        "label": "struct Counters.Counter",
        "members": [
          {
            "astId": 70,
            "contract": "contracts/RockPaperScissors.sol:RockPaperScissors",
            "label": "_value",
            "offset": 0,
            "slot": "0",
            "type": "t_uint256"
          }
        ],
        "numberOfBytes": "32"
      },
      "t_struct(Game)176_storage": {
        "encoding": "inplace",
        "label": "struct RockPaperScissors.Game",
        "members": [
          {
            "astId": 166,
            "contract": "contracts/RockPaperScissors.sol:RockPaperScissors",
            "label": "id",
            "offset": 0,
            "slot": "0",
            "type": "t_uint256"
          },
          {
            "astId": 168,
            "contract": "contracts/RockPaperScissors.sol:RockPaperScissors",
            "label": "stakeAmount",
            "offset": 0,
            "slot": "1",
            "type": "t_uint256"
          },
          {
            "astId": 172,
            "contract": "contracts/RockPaperScissors.sol:RockPaperScissors",
            "label": "players",
            "offset": 0,
            "slot": "2",
            "type": "t_array(t_address)2_storage"
          },
          {
            "astId": 175,
            "contract": "contracts/RockPaperScissors.sol:RockPaperScissors",
            "label": "state",
            "offset": 0,
            "slot": "4",
            "type": "t_enum(State)164"
          }
        ],
        "numberOfBytes": "160"
      },
      "t_struct(Move)181_storage": {
        "encoding": "inplace",
        "label": "struct RockPaperScissors.Move",
        "members": [
          {
            "astId": 178,
            "contract": "contracts/RockPaperScissors.sol:RockPaperScissors",
            "label": "hash",
            "offset": 0,
            "slot": "0",
            "type": "t_bytes32"
          },
          {
            "astId": 180,
            "contract": "contracts/RockPaperScissors.sol:RockPaperScissors",
            "label": "value",
            "offset": 0,
            "slot": "1",
            "type": "t_uint256"
          }
        ],
        "numberOfBytes": "64"
      },
      "t_uint256": {
        "encoding": "inplace",
        "label": "uint256",
        "numberOfBytes": "32"
      }
    }
  }
}