{
  "address": "0xe7f1725E7734CE288F8367e1Bb143E90bb3F0512",
  "abi": [
    {
      "inputs": [
        {
          "internalType": "address",
          "name": "_tContract",
          "type": "address"
        }
      ],
      "stateMutability": "nonpayable",
      "type": "constructor"
    },
    {
      "inputs": [],
      "name": "GameIsNotInJoinedState",
      "type": "error"
    },
    {
      "inputs": [],
      "name": "LowStakeAmount",
      "type": "error"
    },
    {
      "inputs": [],
      "name": "MoveIdNotMatched",
      "type": "error"
    },
    {
      "inputs": [],
      "name": "NotInComittedState",
      "type": "error"
    },
    {
      "inputs": [],
      "name": "NotInCreatedState",
      "type": "error"
    },
    {
      "inputs": [],
      "name": "OnlyPlayersCanCall",
      "type": "error"
    },
    {
      "inputs": [],
      "name": "PaymentError",
      "type": "error"
    },
    {
      "inputs": [],
      "name": "UnapprovedMove",
      "type": "error"
    },
    {
      "inputs": [
        {
          "internalType": "uint256",
          "name": "_gameId",
          "type": "uint256"
        },
        {
          "internalType": "uint256",
          "name": "moveId",
          "type": "uint256"
        },
        {
          "internalType": "uint256",
          "name": "salt",
          "type": "uint256"
        }
      ],
      "name": "commitMove",
      "outputs": [],
      "stateMutability": "nonpayable",
      "type": "function"
    },
    {
      "inputs": [
        {
          "internalType": "uint256",
          "name": "_sAmount",
          "type": "uint256"
        }
      ],
      "name": "createGame",
      "outputs": [],
      "stateMutability": "payable",
      "type": "function"
    },
    {
      "inputs": [],
      "name": "getAvailableGame",
      "outputs": [
        {
          "components": [
            {
              "internalType": "uint256",
              "name": "id",
              "type": "uint256"
            },
            {
              "internalType": "uint256",
              "name": "stakeAmount",
              "type": "uint256"
            },
            {
              "internalType": "address[2]",
              "name": "players",
              "type": "address[2]"
            },
            {
              "internalType": "enum RockPaperScissors.State",
              "name": "state",
              "type": "uint8"
            }
          ],
          "internalType": "struct RockPaperScissors.Game[]",
          "name": "",
          "type": "tuple[]"
        }
      ],
      "stateMutability": "view",
      "type": "function"
    },
    {
      "inputs": [],
      "name": "getGameId",
      "outputs": [
        {
          "internalType": "uint256",
          "name": "",
          "type": "uint256"
        }
      ],
      "stateMutability": "view",
      "type": "function"
    },
    {
      "inputs": [
        {
          "internalType": "uint256",
          "name": "_id",
          "type": "uint256"
        }
      ],
      "name": "getIdToGame",
      "outputs": [
        {
          "components": [
            {
              "internalType": "uint256",
              "name": "id",
              "type": "uint256"
            },
            {
              "internalType": "uint256",
              "name": "stakeAmount",
              "type": "uint256"
            },
            {
              "internalType": "address[2]",
              "name": "players",
              "type": "address[2]"
            },
            {
              "internalType": "enum RockPaperScissors.State",
              "name": "state",
              "type": "uint8"
            }
          ],
          "internalType": "struct RockPaperScissors.Game",
          "name": "",
          "type": "tuple"
        }
      ],
      "stateMutability": "view",
      "type": "function"
    },
    {
      "inputs": [],
      "name": "getPlayersComitedGamed",
      "outputs": [
        {
          "components": [
            {
              "internalType": "uint256",
              "name": "id",
              "type": "uint256"
            },
            {
              "internalType": "uint256",
              "name": "stakeAmount",
              "type": "uint256"
            },
            {
              "internalType": "address[2]",
              "name": "players",
              "type": "address[2]"
            },
            {
              "internalType": "enum RockPaperScissors.State",
              "name": "state",
              "type": "uint8"
            }
          ],
          "internalType": "struct RockPaperScissors.Game[]",
          "name": "",
          "type": "tuple[]"
        }
      ],
      "stateMutability": "view",
      "type": "function"
    },
    {
      "inputs": [],
      "name": "getPlayersJoinedGamed",
      "outputs": [
        {
          "components": [
            {
              "internalType": "uint256",
              "name": "id",
              "type": "uint256"
            },
            {
              "internalType": "uint256",
              "name": "stakeAmount",
              "type": "uint256"
            },
            {
              "internalType": "address[2]",
              "name": "players",
              "type": "address[2]"
            },
            {
              "internalType": "enum RockPaperScissors.State",
              "name": "state",
              "type": "uint8"
            }
          ],
          "internalType": "struct RockPaperScissors.Game[]",
          "name": "",
          "type": "tuple[]"
        }
      ],
      "stateMutability": "view",
      "type": "function"
    },
    {
      "inputs": [],
      "name": "getRevealedGamed",
      "outputs": [
        {
          "components": [
            {
              "internalType": "uint256",
              "name": "id",
              "type": "uint256"
            },
            {
              "internalType": "uint256",
              "name": "stakeAmount",
              "type": "uint256"
            },
            {
              "internalType": "address[2]",
              "name": "players",
              "type": "address[2]"
            },
            {
              "internalType": "enum RockPaperScissors.State",
              "name": "state",
              "type": "uint8"
            }
          ],
          "internalType": "struct RockPaperScissors.Game[]",
          "name": "",
          "type": "tuple[]"
        }
      ],
      "stateMutability": "view",
      "type": "function"
    },
    {
      "inputs": [
        {
          "internalType": "uint256",
          "name": "_gameId",
          "type": "uint256"
        }
      ],
      "name": "joinGame",
      "outputs": [],
      "stateMutability": "payable",
      "type": "function"
    },
    {
      "inputs": [
        {
          "internalType": "uint256",
          "name": "_gameId",
          "type": "uint256"
        },
        {
          "internalType": "uint256",
          "name": "moveId",
          "type": "uint256"
        },
        {
          "internalType": "uint256",
          "name": "salt",
          "type": "uint256"
        }
      ],
      "name": "revealMove",
      "outputs": [],
      "stateMutability": "nonpayable",
      "type": "function"
    },
    {
      "inputs": [
        {
          "internalType": "uint256",
          "name": "",
          "type": "uint256"
        }
      ],
      "name": "winningMoves",
      "outputs": [
        {
          "internalType": "uint256",
          "name": "",
          "type": "uint256"
        }
      ],
      "stateMutability": "view",
      "type": "function"
    }
  ],
  "transactionHash": "0xcb0235a7544f31ca4dd363438cb83cffd70ac864407c3cf8c436cb0cc2e0a5e2",
  "args": [
    "0x5FbDB2315678afecb367f032d93F642f64180aa3"
  ],
  "numDeployments": 1,
  "solcInputHash": "2dae2a1a7ca79613b2c342030f3e769d",
  "bytecode": "0x60806040523480156200001157600080fd5b5060405162002c1c38038062002c1c833981810160405281019062000037919062000136565b600380600060018152602001908152602001600020819055506001600360006002815260200190815260200160002081905550600260036000600381526020019081526020016000208190555080600560006101000a81548173ffffffffffffffffffffffffffffffffffffffff021916908373ffffffffffffffffffffffffffffffffffffffff1602179055505062000168565b600080fd5b600073ffffffffffffffffffffffffffffffffffffffff82169050919050565b6000620000fe82620000d1565b9050919050565b6200011081620000f1565b81146200011c57600080fd5b50565b600081519050620001308162000105565b92915050565b6000602082840312156200014f576200014e620000cc565b5b60006200015f848285016200011f565b91505092915050565b612aa480620001786000396000f3fe60806040526004361061009c5760003560e01c8063a503813e11610064578063a503813e14610177578063b205fa7a146101a2578063b93c1ad2146101cd578063c0bd83511461020a578063c7ca63e114610235578063efaa55a0146102605761009c565b806334d3ce4b146100a1578063354fe54a146100ca57806348e837b9146100f35780634b4cbb451461010f5780639ac450cd1461014c575b600080fd5b3480156100ad57600080fd5b506100c860048036038101906100c391906124a1565b61027c565b005b3480156100d657600080fd5b506100f160048036038101906100ec91906124a1565b61066d565b005b61010d600480360381019061010891906124f4565b610dd2565b005b34801561011b57600080fd5b50610136600480360381019061013191906124f4565b61100f565b6040516101439190612530565b60405180910390f35b34801561015857600080fd5b50610161611027565b60405161016e91906127b2565b60405180910390f35b34801561018357600080fd5b5061018c6112ea565b60405161019991906127b2565b60405180910390f35b3480156101ae57600080fd5b506101b76115fa565b6040516101c491906127b2565b60405180910390f35b3480156101d957600080fd5b506101f460048036038101906101ef91906124f4565b611b25565b6040516102019190612829565b60405180910390f35b34801561021657600080fd5b5061021f611c1b565b60405161022c9190612530565b60405180910390f35b34801561024157600080fd5b5061024a611c2c565b60405161025791906127b2565b60405180910390f35b61027a600480360381019061027591906124f4565b612157565b005b60008060008581526020019081526020016000209050600160038111156102a6576102a5612663565b5b8160040160009054906101000a900460ff1660038111156102ca576102c9612663565b5b14610301576040517f11ec21f400000000000000000000000000000000000000000000000000000000815260040160405180910390fd5b3373ffffffffffffffffffffffffffffffffffffffff168160020160006002811061032f5761032e612844565b5b0160009054906101000a900473ffffffffffffffffffffffffffffffffffffffff1673ffffffffffffffffffffffffffffffffffffffff161415806103d857503373ffffffffffffffffffffffffffffffffffffffff168160020160016002811061039d5761039c612844565b5b0160009054906101000a900473ffffffffffffffffffffffffffffffffffffffff1673ffffffffffffffffffffffffffffffffffffffff1614155b1561040f576040517f571b131800000000000000000000000000000000000000000000000000000000815260040160405180910390fd5b600183141580610420575060028314155b8061042c575060038314155b15610463576040517fb2b85f1500000000000000000000000000000000000000000000000000000000815260040160405180910390fd5b60405180604001604052808484604051602001610481929190612894565b60405160208183030381529060405280519060200120815260200160008152506002600086815260200190815260200160002060003373ffffffffffffffffffffffffffffffffffffffff1673ffffffffffffffffffffffffffffffffffffffff16815260200190815260200160002060008201518160000155602082015181600101559050506000801b6002600086815260200190815260200160002060008360020160006002811061053857610537612844565b5b0160009054906101000a900473ffffffffffffffffffffffffffffffffffffffff1673ffffffffffffffffffffffffffffffffffffffff1673ffffffffffffffffffffffffffffffffffffffff168152602001908152602001600020600001541415801561063457506000801b600260008681526020019081526020016000206000836002016001600281106105d1576105d0612844565b5b0160009054906101000a900473ffffffffffffffffffffffffffffffffffffffff1673ffffffffffffffffffffffffffffffffffffffff1673ffffffffffffffffffffffffffffffffffffffff1681526020019081526020016000206000015414155b156106675760028160040160006101000a81548160ff0219169083600381111561066157610660612663565b5b02179055505b50505050565b600080600085815260200190815260200160002090506000600260008681526020019081526020016000206000836002016000600281106106b1576106b0612844565b5b0160009054906101000a900473ffffffffffffffffffffffffffffffffffffffff1673ffffffffffffffffffffffffffffffffffffffff1673ffffffffffffffffffffffffffffffffffffffff16815260200190815260200160002060405180604001604052908160008201548152602001600182015481525050905060006002600087815260200190815260200160002060008460020160016002811061075c5761075b612844565b5b0160009054906101000a900473ffffffffffffffffffffffffffffffffffffffff1673ffffffffffffffffffffffffffffffffffffffff1673ffffffffffffffffffffffffffffffffffffffff16815260200190815260200160002060405180604001604052908160008201548152602001600182015481525050905060006002600088815260200190815260200160002060003373ffffffffffffffffffffffffffffffffffffffff1673ffffffffffffffffffffffffffffffffffffffff168152602001908152602001600020604051806040016040529081600082015481526020016001820154815250509050600260038111156108605761085f612663565b5b8460040160009054906101000a900460ff16600381111561088457610883612663565b5b146108bb576040517fb8cf966b00000000000000000000000000000000000000000000000000000000815260040160405180910390fd5b3373ffffffffffffffffffffffffffffffffffffffff16846002016000600281106108e9576108e8612844565b5b0160009054906101000a900473ffffffffffffffffffffffffffffffffffffffff1673ffffffffffffffffffffffffffffffffffffffff1614158061099257503373ffffffffffffffffffffffffffffffffffffffff168460020160016002811061095757610956612844565b5b0160009054906101000a900473ffffffffffffffffffffffffffffffffffffffff1673ffffffffffffffffffffffffffffffffffffffff1614155b156109c9576040517f571b131800000000000000000000000000000000000000000000000000000000815260040160405180910390fd5b85856040516020016109dc929190612894565b60405160208183030381529060405280519060200120816000015114610a2e576040517f8b7ff8e500000000000000000000000000000000000000000000000000000000815260040160405180910390fd5b858160200181815250506000836020015114158015610a5257506000826020015114155b15610dc8578160200151836020015103610c5657600560009054906101000a900473ffffffffffffffffffffffffffffffffffffffff1673ffffffffffffffffffffffffffffffffffffffff1663a9059cbb85600201600060028110610abb57610aba612844565b5b0160009054906101000a900473ffffffffffffffffffffffffffffffffffffffff1686600101546040518363ffffffff1660e01b8152600401610aff9291906128cf565b6020604051808303816000875af1158015610b1e573d6000803e3d6000fd5b505050506040513d601f19601f82011682018060405250810190610b429190612930565b50600560009054906101000a900473ffffffffffffffffffffffffffffffffffffffff1673ffffffffffffffffffffffffffffffffffffffff1663a9059cbb85600201600160028110610b9857610b97612844565b5b0160009054906101000a900473ffffffffffffffffffffffffffffffffffffffff1686600101546040518363ffffffff1660e01b8152600401610bdc9291906128cf565b6020604051808303816000875af1158015610bfb573d6000803e3d6000fd5b505050506040513d601f19601f82011682018060405250810190610c1f9190612930565b5060038460040160006101000a81548160ff02191690836003811115610c4857610c47612663565b5b021790555050505050610dcd565b6000826020015160036000866020015181526020019081526020016000205414610cb85784600201600160028110610c9157610c90612844565b5b0160009054906101000a900473ffffffffffffffffffffffffffffffffffffffff16610cf2565b84600201600060028110610ccf57610cce612844565b5b0160009054906101000a900473ffffffffffffffffffffffffffffffffffffffff165b9050600560009054906101000a900473ffffffffffffffffffffffffffffffffffffffff1673ffffffffffffffffffffffffffffffffffffffff1663a9059cbb8287600101546040518363ffffffff1660e01b8152600401610d559291906128cf565b6020604051808303816000875af1158015610d74573d6000803e3d6000fd5b505050506040513d601f19601f82011682018060405250810190610d989190612930565b5060038560040160006101000a81548160ff02191690836003811115610dc157610dc0612663565b5b0217905550505b505050505b505050565b6001811080610de15750600081145b15610e18576040517fa1b0d46900000000000000000000000000000000000000000000000000000000815260040160405180910390fd5b610e2061236a565b3381600060028110610e3557610e34612844565b5b602002019073ffffffffffffffffffffffffffffffffffffffff16908173ffffffffffffffffffffffffffffffffffffffff1681525050610e766004612346565b6000600560009054906101000a900473ffffffffffffffffffffffffffffffffffffffff1673ffffffffffffffffffffffffffffffffffffffff166323b872dd3330866040518463ffffffff1660e01b8152600401610ed79392919061295d565b6020604051808303816000875af1158015610ef6573d6000803e3d6000fd5b505050506040513d601f19601f82011682018060405250810190610f1a9190612930565b905080610f53576040517fabab8fc900000000000000000000000000000000000000000000000000000000815260040160405180910390fd5b6040518060800160405280610f68600461235c565b815260200184815260200183815260200160006003811115610f8d57610f8c612663565b5b815250600080610f9d600461235c565b81526020019081526020016000206000820151816000015560208201518160010155604082015181600201906002610fd692919061238c565b5060608201518160040160006101000a81548160ff0219169083600381111561100257611001612663565b5b0217905550905050505050565b60036020528060005260406000206000915090505481565b60606000611035600461235c565b905060008060005b838110156110d05760038081111561105857611057612663565b5b6001808361106691906129c3565b8154811061107757611076612844565b5b906000526020600020906005020160040160009054906101000a900460ff1660038111156110a8576110a7612663565b5b036110bd576001836110ba91906129c3565b92505b80806110c8906129f7565b91505061103d565b5060008267ffffffffffffffff8111156110ed576110ec612a3f565b5b60405190808252806020026020018201604052801561112657816020015b611113612409565b81526020019060019003908161110b5790505b50905060005b848110156112df5760038081111561114757611146612663565b5b6001808361115591906129c3565b8154811061116657611165612844565b5b906000526020600020906005020160040160009054906101000a900460ff16600381111561119757611196612663565b5b036112cc57600180826111aa91906129c3565b815481106111bb576111ba612844565b5b906000526020600020906005020160405180608001604052908160008201548152602001600182015481526020016002820160028060200260405190810160405280929190826002801561125a576020028201915b8160009054906101000a900473ffffffffffffffffffffffffffffffffffffffff1673ffffffffffffffffffffffffffffffffffffffff1681526020019060010190808311611210575b505050505081526020016004820160009054906101000a900460ff16600381111561128857611287612663565b5b600381111561129a57611299612663565b5b815250508284815181106112b1576112b0612844565b5b60200260200101819052506001836112c991906129c3565b92505b80806112d7906129f7565b91505061112c565b508094505050505090565b606060006112f8600461235c565b9050600080600190505b82811161138a576000600381111561131d5761131c612663565b5b6001828154811061133157611330612844565b5b906000526020600020906005020160040160009054906101000a900460ff16600381111561136257611361612663565b5b036113775760018261137491906129c3565b91505b8080611382906129f7565b915050611302565b50600081036113f157600067ffffffffffffffff8111156113ae576113ad612a3f565b5b6040519080825280602002602001820160405280156113e757816020015b6113d4612409565b8152602001906001900390816113cc5790505b50925050506115f7565b60008167ffffffffffffffff81111561140d5761140c612a3f565b5b60405190808252806020026020018201604052801561144657816020015b611433612409565b81526020019060019003908161142b5790505b509050600080600190505b8481116115ee576000600381111561146c5761146b612663565b5b600182815481106114805761147f612844565b5b906000526020600020906005020160040160009054906101000a900460ff1660038111156114b1576114b0612663565b5b036115db57600181815481106114ca576114c9612844565b5b9060005260206000209060050201604051806080016040529081600082015481526020016001820154815260200160028201600280602002604051908101604052809291908260028015611569576020028201915b8160009054906101000a900473ffffffffffffffffffffffffffffffffffffffff1673ffffffffffffffffffffffffffffffffffffffff168152602001906001019080831161151f575b505050505081526020016004820160009054906101000a900460ff16600381111561159757611596612663565b5b60038111156115a9576115a8612663565b5b815250508383815181106115c0576115bf612844565b5b60200260200101819052506001826115d891906129c3565b91505b80806115e6906129f7565b915050611451565b50819450505050505b90565b60606000611608600461235c565b905060008060005b838110156117d7576001600381111561162c5761162b612663565b5b6001808361163a91906129c3565b8154811061164b5761164a612844565b5b906000526020600020906005020160040160009054906101000a900460ff16600381111561167c5761167b612663565b5b036117c4573373ffffffffffffffffffffffffffffffffffffffff16600180836116a691906129c3565b815481106116b7576116b6612844565b5b90600052602060002090600502016002016000600281106116db576116da612844565b5b0160009054906101000a900473ffffffffffffffffffffffffffffffffffffffff1673ffffffffffffffffffffffffffffffffffffffff1614806117ae57503373ffffffffffffffffffffffffffffffffffffffff166001808361173f91906129c3565b815481106117505761174f612844565b5b906000526020600020906005020160020160016002811061177457611773612844565b5b0160009054906101000a900473ffffffffffffffffffffffffffffffffffffffff1673ffffffffffffffffffffffffffffffffffffffff16145b156117c3576001836117c091906129c3565b92505b5b80806117cf906129f7565b915050611610565b5060008267ffffffffffffffff8111156117f4576117f3612a3f565b5b60405190808252806020026020018201604052801561182d57816020015b61181a612409565b8152602001906001900390816118125790505b50905060005b84811015611b1a576001600381111561184f5761184e612663565b5b6001808361185d91906129c3565b8154811061186e5761186d612844565b5b906000526020600020906005020160040160009054906101000a900460ff16600381111561189f5761189e612663565b5b03611b07573373ffffffffffffffffffffffffffffffffffffffff16600180836118c991906129c3565b815481106118da576118d9612844565b5b90600052602060002090600502016002016000600281106118fe576118fd612844565b5b0160009054906101000a900473ffffffffffffffffffffffffffffffffffffffff1673ffffffffffffffffffffffffffffffffffffffff1614806119d157503373ffffffffffffffffffffffffffffffffffffffff166001808361196291906129c3565b8154811061197357611972612844565b5b906000526020600020906005020160020160016002811061199757611996612844565b5b0160009054906101000a900473ffffffffffffffffffffffffffffffffffffffff1673ffffffffffffffffffffffffffffffffffffffff16145b15611b0657600180826119e491906129c3565b815481106119f5576119f4612844565b5b9060005260206000209060050201604051806080016040529081600082015481526020016001820154815260200160028201600280602002604051908101604052809291908260028015611a94576020028201915b8160009054906101000a900473ffffffffffffffffffffffffffffffffffffffff1673ffffffffffffffffffffffffffffffffffffffff1681526020019060010190808311611a4a575b505050505081526020016004820160009054906101000a900460ff166003811115611ac257611ac1612663565b5b6003811115611ad457611ad3612663565b5b81525050828481518110611aeb57611aea612844565b5b6020026020010181905250600183611b0391906129c3565b92505b5b8080611b12906129f7565b915050611833565b508094505050505090565b611b2d612409565b600080838152602001908152602001600020604051806080016040529081600082015481526020016001820154815260200160028201600280602002604051908101604052809291908260028015611bd0576020028201915b8160009054906101000a900473ffffffffffffffffffffffffffffffffffffffff1673ffffffffffffffffffffffffffffffffffffffff1681526020019060010190808311611b86575b505050505081526020016004820160009054906101000a900460ff166003811115611bfe57611bfd612663565b5b6003811115611c1057611c0f612663565b5b815250509050919050565b6000611c27600461235c565b905090565b60606000611c3a600461235c565b905060008060005b83811015611e095760026003811115611c5e57611c5d612663565b5b60018083611c6c91906129c3565b81548110611c7d57611c7c612844565b5b906000526020600020906005020160040160009054906101000a900460ff166003811115611cae57611cad612663565b5b03611df6573373ffffffffffffffffffffffffffffffffffffffff1660018083611cd891906129c3565b81548110611ce957611ce8612844565b5b9060005260206000209060050201600201600060028110611d0d57611d0c612844565b5b0160009054906101000a900473ffffffffffffffffffffffffffffffffffffffff1673ffffffffffffffffffffffffffffffffffffffff161480611de057503373ffffffffffffffffffffffffffffffffffffffff1660018083611d7191906129c3565b81548110611d8257611d81612844565b5b9060005260206000209060050201600201600160028110611da657611da5612844565b5b0160009054906101000a900473ffffffffffffffffffffffffffffffffffffffff1673ffffffffffffffffffffffffffffffffffffffff16145b15611df557600183611df291906129c3565b92505b5b8080611e01906129f7565b915050611c42565b5060008267ffffffffffffffff811115611e2657611e25612a3f565b5b604051908082528060200260200182016040528015611e5f57816020015b611e4c612409565b815260200190600190039081611e445790505b50905060005b8481101561214c5760026003811115611e8157611e80612663565b5b60018083611e8f91906129c3565b81548110611ea057611e9f612844565b5b906000526020600020906005020160040160009054906101000a900460ff166003811115611ed157611ed0612663565b5b03612139573373ffffffffffffffffffffffffffffffffffffffff1660018083611efb91906129c3565b81548110611f0c57611f0b612844565b5b9060005260206000209060050201600201600060028110611f3057611f2f612844565b5b0160009054906101000a900473ffffffffffffffffffffffffffffffffffffffff1673ffffffffffffffffffffffffffffffffffffffff16148061200357503373ffffffffffffffffffffffffffffffffffffffff1660018083611f9491906129c3565b81548110611fa557611fa4612844565b5b9060005260206000209060050201600201600160028110611fc957611fc8612844565b5b0160009054906101000a900473ffffffffffffffffffffffffffffffffffffffff1673ffffffffffffffffffffffffffffffffffffffff16145b15612138576001808261201691906129c3565b8154811061202757612026612844565b5b90600052602060002090600502016040518060800160405290816000820154815260200160018201548152602001600282016002806020026040519081016040528092919082600280156120c6576020028201915b8160009054906101000a900473ffffffffffffffffffffffffffffffffffffffff1673ffffffffffffffffffffffffffffffffffffffff168152602001906001019080831161207c575b505050505081526020016004820160009054906101000a900460ff1660038111156120f4576120f3612663565b5b600381111561210657612105612663565b5b8152505082848151811061211d5761211c612844565b5b602002602001018190525060018361213591906129c3565b92505b5b8080612144906129f7565b915050611e65565b508094505050505090565b600080600083815260200190815260200160002090506000600381111561218157612180612663565b5b8160040160009054906101000a900460ff1660038111156121a5576121a4612663565b5b146121dc576040517f4c1777d800000000000000000000000000000000000000000000000000000000815260040160405180910390fd5b33816002016001600281106121f4576121f3612844565b5b0160006101000a81548173ffffffffffffffffffffffffffffffffffffffff021916908373ffffffffffffffffffffffffffffffffffffffff1602179055506000600560009054906101000a900473ffffffffffffffffffffffffffffffffffffffff1673ffffffffffffffffffffffffffffffffffffffff166323b872dd333085600101546040518463ffffffff1660e01b81526004016122989392919061295d565b6020604051808303816000875af11580156122b7573d6000803e3d6000fd5b505050506040513d601f19601f820116820180604052508101906122db9190612930565b905080612314576040517fabab8fc900000000000000000000000000000000000000000000000000000000815260040160405180910390fd5b60018260040160006101000a81548160ff0219169083600381111561233c5761233b612663565b5b0217905550505050565b6001816000016000828254019250508190555050565b600081600001549050919050565b6040518060400160405280600290602082028036833780820191505090505090565b82600281019282156123f8579160200282015b828111156123f75782518260006101000a81548173ffffffffffffffffffffffffffffffffffffffff021916908373ffffffffffffffffffffffffffffffffffffffff1602179055509160200191906001019061239f565b5b5090506124059190612449565b5090565b6040518060800160405280600081526020016000815260200161242a61236a565b81526020016000600381111561244357612442612663565b5b81525090565b5b8082111561246257600081600090555060010161244a565b5090565b600080fd5b6000819050919050565b61247e8161246b565b811461248957600080fd5b50565b60008135905061249b81612475565b92915050565b6000806000606084860312156124ba576124b9612466565b5b60006124c88682870161248c565b93505060206124d98682870161248c565b92505060406124ea8682870161248c565b9150509250925092565b60006020828403121561250a57612509612466565b5b60006125188482850161248c565b91505092915050565b61252a8161246b565b82525050565b60006020820190506125456000830184612521565b92915050565b600081519050919050565b600082825260208201905092915050565b6000819050602082019050919050565b6125808161246b565b82525050565b600060029050919050565b600081905092915050565b6000819050919050565b600073ffffffffffffffffffffffffffffffffffffffff82169050919050565b60006125d1826125a6565b9050919050565b6125e1816125c6565b82525050565b60006125f383836125d8565b60208301905092915050565b6000602082019050919050565b61261581612586565b61261f8184612591565b925061262a8261259c565b8060005b8381101561265b57815161264287826125e7565b965061264d836125ff565b92505060018101905061262e565b505050505050565b7f4e487b7100000000000000000000000000000000000000000000000000000000600052602160045260246000fd5b600481106126a3576126a2612663565b5b50565b60008190506126b482612692565b919050565b60006126c4826126a6565b9050919050565b6126d4816126b9565b82525050565b60a0820160008201516126f06000850182612577565b5060208201516127036020850182612577565b506040820151612716604085018261260c565b50606082015161272960808501826126cb565b50505050565b600061273b83836126da565b60a08301905092915050565b6000602082019050919050565b600061275f8261254b565b6127698185612556565b935061277483612567565b8060005b838110156127a557815161278c888261272f565b975061279783612747565b925050600181019050612778565b5085935050505092915050565b600060208201905081810360008301526127cc8184612754565b905092915050565b60a0820160008201516127ea6000850182612577565b5060208201516127fd6020850182612577565b506040820151612810604085018261260c565b50606082015161282360808501826126cb565b50505050565b600060a08201905061283e60008301846127d4565b92915050565b7f4e487b7100000000000000000000000000000000000000000000000000000000600052603260045260246000fd5b6000819050919050565b61288e6128898261246b565b612873565b82525050565b60006128a0828561287d565b6020820191506128b0828461287d565b6020820191508190509392505050565b6128c9816125c6565b82525050565b60006040820190506128e460008301856128c0565b6128f16020830184612521565b9392505050565b60008115159050919050565b61290d816128f8565b811461291857600080fd5b50565b60008151905061292a81612904565b92915050565b60006020828403121561294657612945612466565b5b60006129548482850161291b565b91505092915050565b600060608201905061297260008301866128c0565b61297f60208301856128c0565b61298c6040830184612521565b949350505050565b7f4e487b7100000000000000000000000000000000000000000000000000000000600052601160045260246000fd5b60006129ce8261246b565b91506129d98361246b565b92508282019050808211156129f1576129f0612994565b5b92915050565b6000612a028261246b565b91507fffffffffffffffffffffffffffffffffffffffffffffffffffffffffffffffff8203612a3457612a33612994565b5b600182019050919050565b7f4e487b7100000000000000000000000000000000000000000000000000000000600052604160045260246000fdfea2646970667358221220d54bbf856b82b15c536e8c28e9f0d8e6eecd39bd25adfa6a33d3259676cf972b64736f6c63430008110033",
  "devdoc": {
    "kind": "dev",
    "methods": {},
    "version": 1
  },
  "userdoc": {
    "kind": "user",
    "methods": {},
    "version": 1
  },
  "storageLayout": {
    "storage": [
      {
        "astId": 186,
        "contract": "contracts/RockPaperScissors.sol:RockPaperScissors",
        "label": "idToGame",
        "offset": 0,
        "slot": "0",
        "type": "t_mapping(t_uint256,t_struct(Game)176_storage)"
      },
      {
        "astId": 190,
        "contract": "contracts/RockPaperScissors.sol:RockPaperScissors",
        "label": "games",
        "offset": 0,
        "slot": "1",
        "type": "t_array(t_struct(Game)176_storage)dyn_storage"
      },
      {
        "astId": 197,
        "contract": "contracts/RockPaperScissors.sol:RockPaperScissors",
        "label": "moves",
        "offset": 0,
        "slot": "2",
        "type": "t_mapping(t_uint256,t_mapping(t_address,t_struct(Move)181_storage))"
      },
      {
        "astId": 201,
        "contract": "contracts/RockPaperScissors.sol:RockPaperScissors",
        "label": "winningMoves",
        "offset": 0,
        "slot": "3",
        "type": "t_mapping(t_uint256,t_uint256)"
      },
      {
        "astId": 204,
        "contract": "contracts/RockPaperScissors.sol:RockPaperScissors",
        "label": "gameId",
        "offset": 0,
        "slot": "4",
        "type": "t_struct(Counter)71_storage"
      },
      {
        "astId": 207,
        "contract": "contracts/RockPaperScissors.sol:RockPaperScissors",
        "label": "tokenContract",
        "offset": 0,
        "slot": "5",
        "type": "t_contract(IERC20)68"
      }
    ],
    "types": {
      "t_address": {
        "encoding": "inplace",
        "label": "address",
        "numberOfBytes": "20"
      },
      "t_array(t_address)2_storage": {
        "base": "t_address",
        "encoding": "inplace",
        "label": "address[2]",
        "numberOfBytes": "64"
      },
      "t_array(t_struct(Game)176_storage)dyn_storage": {
        "base": "t_struct(Game)176_storage",
        "encoding": "dynamic_array",
        "label": "struct RockPaperScissors.Game[]",
        "numberOfBytes": "32"
      },
      "t_bytes32": {
        "encoding": "inplace",
        "label": "bytes32",
        "numberOfBytes": "32"
      },
      "t_contract(IERC20)68": {
        "encoding": "inplace",
        "label": "contract IERC20",
        "numberOfBytes": "20"
      },
      "t_enum(State)164": {
        "encoding": "inplace",
        "label": "enum RockPaperScissors.State",
        "numberOfBytes": "1"
      },
      "t_mapping(t_address,t_struct(Move)181_storage)": {
        "encoding": "mapping",
        "key": "t_address",
        "label": "mapping(address => struct RockPaperScissors.Move)",
        "numberOfBytes": "32",
        "value": "t_struct(Move)181_storage"
      },
      "t_mapping(t_uint256,t_mapping(t_address,t_struct(Move)181_storage))": {
        "encoding": "mapping",
        "key": "t_uint256",
        "label": "mapping(uint256 => mapping(address => struct RockPaperScissors.Move))",
        "numberOfBytes": "32",
        "value": "t_mapping(t_address,t_struct(Move)181_storage)"
      },
      "t_mapping(t_uint256,t_struct(Game)176_storage)": {
        "encoding": "mapping",
        "key": "t_uint256",
        "label": "mapping(uint256 => struct RockPaperScissors.Game)",
        "numberOfBytes": "32",
        "value": "t_struct(Game)176_storage"
      },
      "t_mapping(t_uint256,t_uint256)": {
        "encoding": "mapping",
        "key": "t_uint256",
        "label": "mapping(uint256 => uint256)",
        "numberOfBytes": "32",
        "value": "t_uint256"
      },
      "t_struct(Counter)71_storage": {
        "encoding": "inplace",
        "label": "struct Counters.Counter",
        "members": [
          {
            "astId": 70,
            "contract": "contracts/RockPaperScissors.sol:RockPaperScissors",
            "label": "_value",
            "offset": 0,
            "slot": "0",
            "type": "t_uint256"
          }
        ],
        "numberOfBytes": "32"
      },
      "t_struct(Game)176_storage": {
        "encoding": "inplace",
        "label": "struct RockPaperScissors.Game",
        "members": [
          {
            "astId": 166,
            "contract": "contracts/RockPaperScissors.sol:RockPaperScissors",
            "label": "id",
            "offset": 0,
            "slot": "0",
            "type": "t_uint256"
          },
          {
            "astId": 168,
            "contract": "contracts/RockPaperScissors.sol:RockPaperScissors",
            "label": "stakeAmount",
            "offset": 0,
            "slot": "1",
            "type": "t_uint256"
          },
          {
            "astId": 172,
            "contract": "contracts/RockPaperScissors.sol:RockPaperScissors",
            "label": "players",
            "offset": 0,
            "slot": "2",
            "type": "t_array(t_address)2_storage"
          },
          {
            "astId": 175,
            "contract": "contracts/RockPaperScissors.sol:RockPaperScissors",
            "label": "state",
            "offset": 0,
            "slot": "4",
            "type": "t_enum(State)164"
          }
        ],
        "numberOfBytes": "160"
      },
      "t_struct(Move)181_storage": {
        "encoding": "inplace",
        "label": "struct RockPaperScissors.Move",
        "members": [
          {
            "astId": 178,
            "contract": "contracts/RockPaperScissors.sol:RockPaperScissors",
            "label": "hash",
            "offset": 0,
            "slot": "0",
            "type": "t_bytes32"
          },
          {
            "astId": 180,
            "contract": "contracts/RockPaperScissors.sol:RockPaperScissors",
            "label": "value",
            "offset": 0,
            "slot": "1",
            "type": "t_uint256"
          }
        ],
        "numberOfBytes": "64"
      },
      "t_uint256": {
        "encoding": "inplace",
        "label": "uint256",
        "numberOfBytes": "32"
      }
    }
  }
}