{
  "address": "0xe7f1725E7734CE288F8367e1Bb143E90bb3F0512",
  "abi": [
    {
      "inputs": [
        {
          "internalType": "address",
          "name": "_tContract",
          "type": "address"
        }
      ],
      "stateMutability": "nonpayable",
      "type": "constructor"
    },
    {
      "inputs": [],
      "name": "GameIsNotInJoinedState",
      "type": "error"
    },
    {
      "inputs": [],
      "name": "LowStakeAmount",
      "type": "error"
    },
    {
      "inputs": [],
      "name": "MoveIdNotMatched",
      "type": "error"
    },
    {
      "inputs": [],
      "name": "NotInComittedState",
      "type": "error"
    },
    {
      "inputs": [],
      "name": "NotInCreatedState",
      "type": "error"
    },
    {
      "inputs": [],
      "name": "OnlyPlayersCanCall",
      "type": "error"
    },
    {
      "inputs": [],
      "name": "PaymentError",
      "type": "error"
    },
    {
      "inputs": [],
      "name": "UnapprovedMove",
      "type": "error"
    },
    {
      "inputs": [
        {
          "internalType": "uint256",
          "name": "_gameId",
          "type": "uint256"
        },
        {
          "internalType": "uint256",
          "name": "moveId",
          "type": "uint256"
        },
        {
          "internalType": "uint256",
          "name": "salt",
          "type": "uint256"
        }
      ],
      "name": "commitMove",
      "outputs": [],
      "stateMutability": "nonpayable",
      "type": "function"
    },
    {
      "inputs": [
        {
          "internalType": "uint256",
          "name": "_sAmount",
          "type": "uint256"
        }
      ],
      "name": "createGame",
      "outputs": [],
      "stateMutability": "payable",
      "type": "function"
    },
    {
      "inputs": [],
      "name": "getAvailableGame",
      "outputs": [
        {
          "components": [
            {
              "internalType": "uint256",
              "name": "id",
              "type": "uint256"
            },
            {
              "internalType": "uint256",
              "name": "stakeAmount",
              "type": "uint256"
            },
            {
              "internalType": "address[2]",
              "name": "players",
              "type": "address[2]"
            },
            {
              "internalType": "enum RockPaperScissors.State",
              "name": "state",
              "type": "uint8"
            }
          ],
          "internalType": "struct RockPaperScissors.Game[]",
          "name": "",
          "type": "tuple[]"
        }
      ],
      "stateMutability": "view",
      "type": "function"
    },
    {
      "inputs": [],
      "name": "getGameId",
      "outputs": [
        {
          "internalType": "uint256",
          "name": "",
          "type": "uint256"
        }
      ],
      "stateMutability": "view",
      "type": "function"
    },
    {
      "inputs": [
        {
          "internalType": "uint256",
          "name": "_id",
          "type": "uint256"
        }
      ],
      "name": "getIdToGame",
      "outputs": [
        {
          "components": [
            {
              "internalType": "uint256",
              "name": "id",
              "type": "uint256"
            },
            {
              "internalType": "uint256",
              "name": "stakeAmount",
              "type": "uint256"
            },
            {
              "internalType": "address[2]",
              "name": "players",
              "type": "address[2]"
            },
            {
              "internalType": "enum RockPaperScissors.State",
              "name": "state",
              "type": "uint8"
            }
          ],
          "internalType": "struct RockPaperScissors.Game",
          "name": "",
          "type": "tuple"
        }
      ],
      "stateMutability": "view",
      "type": "function"
    },
    {
      "inputs": [],
      "name": "getPlayersComitedGamed",
      "outputs": [
        {
          "components": [
            {
              "internalType": "uint256",
              "name": "id",
              "type": "uint256"
            },
            {
              "internalType": "uint256",
              "name": "stakeAmount",
              "type": "uint256"
            },
            {
              "internalType": "address[2]",
              "name": "players",
              "type": "address[2]"
            },
            {
              "internalType": "enum RockPaperScissors.State",
              "name": "state",
              "type": "uint8"
            }
          ],
          "internalType": "struct RockPaperScissors.Game[]",
          "name": "",
          "type": "tuple[]"
        }
      ],
      "stateMutability": "view",
      "type": "function"
    },
    {
      "inputs": [],
      "name": "getPlayersJoinedGamed",
      "outputs": [
        {
          "components": [
            {
              "internalType": "uint256",
              "name": "id",
              "type": "uint256"
            },
            {
              "internalType": "uint256",
              "name": "stakeAmount",
              "type": "uint256"
            },
            {
              "internalType": "address[2]",
              "name": "players",
              "type": "address[2]"
            },
            {
              "internalType": "enum RockPaperScissors.State",
              "name": "state",
              "type": "uint8"
            }
          ],
          "internalType": "struct RockPaperScissors.Game[]",
          "name": "",
          "type": "tuple[]"
        }
      ],
      "stateMutability": "view",
      "type": "function"
    },
    {
      "inputs": [],
      "name": "getRevealedGamed",
      "outputs": [
        {
          "components": [
            {
              "internalType": "uint256",
              "name": "id",
              "type": "uint256"
            },
            {
              "internalType": "uint256",
              "name": "stakeAmount",
              "type": "uint256"
            },
            {
              "internalType": "address[2]",
              "name": "players",
              "type": "address[2]"
            },
            {
              "internalType": "enum RockPaperScissors.State",
              "name": "state",
              "type": "uint8"
            }
          ],
          "internalType": "struct RockPaperScissors.Game[]",
          "name": "",
          "type": "tuple[]"
        }
      ],
      "stateMutability": "view",
      "type": "function"
    },
    {
      "inputs": [
        {
          "internalType": "uint256",
          "name": "_gameId",
          "type": "uint256"
        }
      ],
      "name": "joinGame",
      "outputs": [],
      "stateMutability": "payable",
      "type": "function"
    },
    {
      "inputs": [
        {
          "internalType": "uint256",
          "name": "_gameId",
          "type": "uint256"
        },
        {
          "internalType": "uint256",
          "name": "moveId",
          "type": "uint256"
        },
        {
          "internalType": "uint256",
          "name": "salt",
          "type": "uint256"
        }
      ],
      "name": "revealMove",
      "outputs": [],
      "stateMutability": "nonpayable",
      "type": "function"
    },
    {
      "inputs": [
        {
          "internalType": "uint256",
          "name": "",
          "type": "uint256"
        }
      ],
      "name": "winningMoves",
      "outputs": [
        {
          "internalType": "uint256",
          "name": "",
          "type": "uint256"
        }
      ],
      "stateMutability": "view",
      "type": "function"
    }
  ],
  "transactionHash": "0xf00b79d8159125d95a757ab5850e7a87a091bc1fcd82bf0739470830efc29148",
  "args": [
    "0x5FbDB2315678afecb367f032d93F642f64180aa3"
  ],
  "numDeployments": 1,
  "solcInputHash": "2e75763d56224972ec86f841e9792fd8",
  "bytecode": "0x60806040523480156200001157600080fd5b5060405162002ca238038062002ca2833981810160405281019062000037919062000136565b600380600060018152602001908152602001600020819055506001600360006002815260200190815260200160002081905550600260036000600381526020019081526020016000208190555080600560006101000a81548173ffffffffffffffffffffffffffffffffffffffff021916908373ffffffffffffffffffffffffffffffffffffffff1602179055505062000168565b600080fd5b600073ffffffffffffffffffffffffffffffffffffffff82169050919050565b6000620000fe82620000d1565b9050919050565b6200011081620000f1565b81146200011c57600080fd5b50565b600081519050620001308162000105565b92915050565b6000602082840312156200014f576200014e620000cc565b5b60006200015f848285016200011f565b91505092915050565b612b2a80620001786000396000f3fe60806040526004361061009c5760003560e01c8063a503813e11610064578063a503813e14610177578063b205fa7a146101a2578063b93c1ad2146101cd578063c0bd83511461020a578063c7ca63e114610235578063efaa55a0146102605761009c565b806334d3ce4b146100a1578063354fe54a146100ca57806348e837b9146100f35780634b4cbb451461010f5780639ac450cd1461014c575b600080fd5b3480156100ad57600080fd5b506100c860048036038101906100c39190612527565b61027c565b005b3480156100d657600080fd5b506100f160048036038101906100ec9190612527565b61066d565b005b61010d6004803603810190610108919061257a565b610dd2565b005b34801561011b57600080fd5b506101366004803603810190610131919061257a565b61109f565b60405161014391906125b6565b60405180910390f35b34801561015857600080fd5b506101616110b7565b60405161016e9190612838565b60405180910390f35b34801561018357600080fd5b5061018c61137a565b6040516101999190612838565b60405180910390f35b3480156101ae57600080fd5b506101b7611680565b6040516101c49190612838565b60405180910390f35b3480156101d957600080fd5b506101f460048036038101906101ef919061257a565b611bab565b60405161020191906128af565b60405180910390f35b34801561021657600080fd5b5061021f611ca1565b60405161022c91906125b6565b60405180910390f35b34801561024157600080fd5b5061024a611cb2565b6040516102579190612838565b60405180910390f35b61027a6004803603810190610275919061257a565b6121dd565b005b60008060008581526020019081526020016000209050600160038111156102a6576102a56126e9565b5b8160040160009054906101000a900460ff1660038111156102ca576102c96126e9565b5b14610301576040517f11ec21f400000000000000000000000000000000000000000000000000000000815260040160405180910390fd5b3373ffffffffffffffffffffffffffffffffffffffff168160020160006002811061032f5761032e6128ca565b5b0160009054906101000a900473ffffffffffffffffffffffffffffffffffffffff1673ffffffffffffffffffffffffffffffffffffffff161415806103d857503373ffffffffffffffffffffffffffffffffffffffff168160020160016002811061039d5761039c6128ca565b5b0160009054906101000a900473ffffffffffffffffffffffffffffffffffffffff1673ffffffffffffffffffffffffffffffffffffffff1614155b1561040f576040517f571b131800000000000000000000000000000000000000000000000000000000815260040160405180910390fd5b600183141580610420575060028314155b8061042c575060038314155b15610463576040517fb2b85f1500000000000000000000000000000000000000000000000000000000815260040160405180910390fd5b6040518060400160405280848460405160200161048192919061291a565b60405160208183030381529060405280519060200120815260200160008152506002600086815260200190815260200160002060003373ffffffffffffffffffffffffffffffffffffffff1673ffffffffffffffffffffffffffffffffffffffff16815260200190815260200160002060008201518160000155602082015181600101559050506000801b60026000868152602001908152602001600020600083600201600060028110610538576105376128ca565b5b0160009054906101000a900473ffffffffffffffffffffffffffffffffffffffff1673ffffffffffffffffffffffffffffffffffffffff1673ffffffffffffffffffffffffffffffffffffffff168152602001908152602001600020600001541415801561063457506000801b600260008681526020019081526020016000206000836002016001600281106105d1576105d06128ca565b5b0160009054906101000a900473ffffffffffffffffffffffffffffffffffffffff1673ffffffffffffffffffffffffffffffffffffffff1673ffffffffffffffffffffffffffffffffffffffff1681526020019081526020016000206000015414155b156106675760028160040160006101000a81548160ff02191690836003811115610661576106606126e9565b5b02179055505b50505050565b600080600085815260200190815260200160002090506000600260008681526020019081526020016000206000836002016000600281106106b1576106b06128ca565b5b0160009054906101000a900473ffffffffffffffffffffffffffffffffffffffff1673ffffffffffffffffffffffffffffffffffffffff1673ffffffffffffffffffffffffffffffffffffffff16815260200190815260200160002060405180604001604052908160008201548152602001600182015481525050905060006002600087815260200190815260200160002060008460020160016002811061075c5761075b6128ca565b5b0160009054906101000a900473ffffffffffffffffffffffffffffffffffffffff1673ffffffffffffffffffffffffffffffffffffffff1673ffffffffffffffffffffffffffffffffffffffff16815260200190815260200160002060405180604001604052908160008201548152602001600182015481525050905060006002600088815260200190815260200160002060003373ffffffffffffffffffffffffffffffffffffffff1673ffffffffffffffffffffffffffffffffffffffff168152602001908152602001600020604051806040016040529081600082015481526020016001820154815250509050600260038111156108605761085f6126e9565b5b8460040160009054906101000a900460ff166003811115610884576108836126e9565b5b146108bb576040517fb8cf966b00000000000000000000000000000000000000000000000000000000815260040160405180910390fd5b3373ffffffffffffffffffffffffffffffffffffffff16846002016000600281106108e9576108e86128ca565b5b0160009054906101000a900473ffffffffffffffffffffffffffffffffffffffff1673ffffffffffffffffffffffffffffffffffffffff1614158061099257503373ffffffffffffffffffffffffffffffffffffffff1684600201600160028110610957576109566128ca565b5b0160009054906101000a900473ffffffffffffffffffffffffffffffffffffffff1673ffffffffffffffffffffffffffffffffffffffff1614155b156109c9576040517f571b131800000000000000000000000000000000000000000000000000000000815260040160405180910390fd5b85856040516020016109dc92919061291a565b60405160208183030381529060405280519060200120816000015114610a2e576040517f8b7ff8e500000000000000000000000000000000000000000000000000000000815260040160405180910390fd5b858160200181815250506000836020015114158015610a5257506000826020015114155b15610dc8578160200151836020015103610c5657600560009054906101000a900473ffffffffffffffffffffffffffffffffffffffff1673ffffffffffffffffffffffffffffffffffffffff1663a9059cbb85600201600060028110610abb57610aba6128ca565b5b0160009054906101000a900473ffffffffffffffffffffffffffffffffffffffff1686600101546040518363ffffffff1660e01b8152600401610aff929190612955565b6020604051808303816000875af1158015610b1e573d6000803e3d6000fd5b505050506040513d601f19601f82011682018060405250810190610b4291906129b6565b50600560009054906101000a900473ffffffffffffffffffffffffffffffffffffffff1673ffffffffffffffffffffffffffffffffffffffff1663a9059cbb85600201600160028110610b9857610b976128ca565b5b0160009054906101000a900473ffffffffffffffffffffffffffffffffffffffff1686600101546040518363ffffffff1660e01b8152600401610bdc929190612955565b6020604051808303816000875af1158015610bfb573d6000803e3d6000fd5b505050506040513d601f19601f82011682018060405250810190610c1f91906129b6565b5060038460040160006101000a81548160ff02191690836003811115610c4857610c476126e9565b5b021790555050505050610dcd565b6000826020015160036000866020015181526020019081526020016000205414610cb85784600201600160028110610c9157610c906128ca565b5b0160009054906101000a900473ffffffffffffffffffffffffffffffffffffffff16610cf2565b84600201600060028110610ccf57610cce6128ca565b5b0160009054906101000a900473ffffffffffffffffffffffffffffffffffffffff165b9050600560009054906101000a900473ffffffffffffffffffffffffffffffffffffffff1673ffffffffffffffffffffffffffffffffffffffff1663a9059cbb8287600101546040518363ffffffff1660e01b8152600401610d55929190612955565b6020604051808303816000875af1158015610d74573d6000803e3d6000fd5b505050506040513d601f19601f82011682018060405250810190610d9891906129b6565b5060038560040160006101000a81548160ff02191690836003811115610dc157610dc06126e9565b5b0217905550505b505050505b505050565b6001811080610de15750600081145b15610e18576040517fa1b0d46900000000000000000000000000000000000000000000000000000000815260040160405180910390fd5b610e206123f0565b3381600060028110610e3557610e346128ca565b5b602002019073ffffffffffffffffffffffffffffffffffffffff16908173ffffffffffffffffffffffffffffffffffffffff1681525050610e7660046123cc565b6000600560009054906101000a900473ffffffffffffffffffffffffffffffffffffffff1673ffffffffffffffffffffffffffffffffffffffff166323b872dd3330866040518463ffffffff1660e01b8152600401610ed7939291906129e3565b6020604051808303816000875af1158015610ef6573d6000803e3d6000fd5b505050506040513d601f19601f82011682018060405250810190610f1a91906129b6565b905080610f53576040517fabab8fc900000000000000000000000000000000000000000000000000000000815260040160405180910390fd5b60006040518060800160405280610f6a60046123e2565b815260200185815260200184815260200160006003811115610f8f57610f8e6126e9565b5b815250905080600080610fa260046123e2565b81526020019081526020016000206000820151816000015560208201518160010155604082015181600201906002610fdb929190612412565b5060608201518160040160006101000a81548160ff02191690836003811115611007576110066126e9565b5b021790555090505060018190806001815401808255809150506001900390600052602060002090600502016000909190919091506000820151816000015560208201518160010155604082015181600201906002611066929190612412565b5060608201518160040160006101000a81548160ff02191690836003811115611092576110916126e9565b5b0217905550505050505050565b60036020528060005260406000206000915090505481565b606060006110c560046123e2565b905060008060005b83811015611160576003808111156110e8576110e76126e9565b5b600180836110f69190612a49565b81548110611107576111066128ca565b5b906000526020600020906005020160040160009054906101000a900460ff166003811115611138576111376126e9565b5b0361114d5760018361114a9190612a49565b92505b808061115890612a7d565b9150506110cd565b5060008267ffffffffffffffff81111561117d5761117c612ac5565b5b6040519080825280602002602001820160405280156111b657816020015b6111a361248f565b81526020019060019003908161119b5790505b50905060005b8481101561136f576003808111156111d7576111d66126e9565b5b600180836111e59190612a49565b815481106111f6576111f56128ca565b5b906000526020600020906005020160040160009054906101000a900460ff166003811115611227576112266126e9565b5b0361135c576001808261123a9190612a49565b8154811061124b5761124a6128ca565b5b90600052602060002090600502016040518060800160405290816000820154815260200160018201548152602001600282016002806020026040519081016040528092919082600280156112ea576020028201915b8160009054906101000a900473ffffffffffffffffffffffffffffffffffffffff1673ffffffffffffffffffffffffffffffffffffffff16815260200190600101908083116112a0575b505050505081526020016004820160009054906101000a900460ff166003811115611318576113176126e9565b5b600381111561132a576113296126e9565b5b81525050828481518110611341576113406128ca565b5b60200260200101819052506001836113599190612a49565b92505b808061136790612a7d565b9150506111bc565b508094505050505090565b6060600061138860046123e2565b9050600080600090505b8281101561141757600060038111156113ae576113ad6126e9565b5b6000806001846113be9190612a49565b815260200190815260200160002060040160009054906101000a900460ff1660038111156113ef576113ee6126e9565b5b03611404576001826114019190612a49565b91505b808061140f90612a7d565b915050611392565b506000810361147e57600067ffffffffffffffff81111561143b5761143a612ac5565b5b60405190808252806020026020018201604052801561147457816020015b61146161248f565b8152602001906001900390816114595790505b509250505061167d565b60008167ffffffffffffffff81111561149a57611499612ac5565b5b6040519080825280602002602001820160405280156114d357816020015b6114c061248f565b8152602001906001900390816114b85790505b509050600080600090505b8481101561167457600060038111156114fa576114f96126e9565b5b60008060018461150a9190612a49565b815260200190815260200160002060040160009054906101000a900460ff16600381111561153b5761153a6126e9565b5b03611661576000806001836115509190612a49565b81526020019081526020016000206040518060800160405290816000820154815260200160018201548152602001600282016002806020026040519081016040528092919082600280156115ef576020028201915b8160009054906101000a900473ffffffffffffffffffffffffffffffffffffffff1673ffffffffffffffffffffffffffffffffffffffff16815260200190600101908083116115a5575b505050505081526020016004820160009054906101000a900460ff16600381111561161d5761161c6126e9565b5b600381111561162f5761162e6126e9565b5b81525050838381518110611646576116456128ca565b5b602002602001018190525060018261165e9190612a49565b91505b808061166c90612a7d565b9150506114de565b50819450505050505b90565b6060600061168e60046123e2565b905060008060005b8381101561185d57600160038111156116b2576116b16126e9565b5b600180836116c09190612a49565b815481106116d1576116d06128ca565b5b906000526020600020906005020160040160009054906101000a900460ff166003811115611702576117016126e9565b5b0361184a573373ffffffffffffffffffffffffffffffffffffffff166001808361172c9190612a49565b8154811061173d5761173c6128ca565b5b9060005260206000209060050201600201600060028110611761576117606128ca565b5b0160009054906101000a900473ffffffffffffffffffffffffffffffffffffffff1673ffffffffffffffffffffffffffffffffffffffff16148061183457503373ffffffffffffffffffffffffffffffffffffffff16600180836117c59190612a49565b815481106117d6576117d56128ca565b5b90600052602060002090600502016002016001600281106117fa576117f96128ca565b5b0160009054906101000a900473ffffffffffffffffffffffffffffffffffffffff1673ffffffffffffffffffffffffffffffffffffffff16145b15611849576001836118469190612a49565b92505b5b808061185590612a7d565b915050611696565b5060008267ffffffffffffffff81111561187a57611879612ac5565b5b6040519080825280602002602001820160405280156118b357816020015b6118a061248f565b8152602001906001900390816118985790505b50905060005b84811015611ba057600160038111156118d5576118d46126e9565b5b600180836118e39190612a49565b815481106118f4576118f36128ca565b5b906000526020600020906005020160040160009054906101000a900460ff166003811115611925576119246126e9565b5b03611b8d573373ffffffffffffffffffffffffffffffffffffffff166001808361194f9190612a49565b815481106119605761195f6128ca565b5b9060005260206000209060050201600201600060028110611984576119836128ca565b5b0160009054906101000a900473ffffffffffffffffffffffffffffffffffffffff1673ffffffffffffffffffffffffffffffffffffffff161480611a5757503373ffffffffffffffffffffffffffffffffffffffff16600180836119e89190612a49565b815481106119f9576119f86128ca565b5b9060005260206000209060050201600201600160028110611a1d57611a1c6128ca565b5b0160009054906101000a900473ffffffffffffffffffffffffffffffffffffffff1673ffffffffffffffffffffffffffffffffffffffff16145b15611b8c5760018082611a6a9190612a49565b81548110611a7b57611a7a6128ca565b5b9060005260206000209060050201604051806080016040529081600082015481526020016001820154815260200160028201600280602002604051908101604052809291908260028015611b1a576020028201915b8160009054906101000a900473ffffffffffffffffffffffffffffffffffffffff1673ffffffffffffffffffffffffffffffffffffffff1681526020019060010190808311611ad0575b505050505081526020016004820160009054906101000a900460ff166003811115611b4857611b476126e9565b5b6003811115611b5a57611b596126e9565b5b81525050828481518110611b7157611b706128ca565b5b6020026020010181905250600183611b899190612a49565b92505b5b8080611b9890612a7d565b9150506118b9565b508094505050505090565b611bb361248f565b600080838152602001908152602001600020604051806080016040529081600082015481526020016001820154815260200160028201600280602002604051908101604052809291908260028015611c56576020028201915b8160009054906101000a900473ffffffffffffffffffffffffffffffffffffffff1673ffffffffffffffffffffffffffffffffffffffff1681526020019060010190808311611c0c575b505050505081526020016004820160009054906101000a900460ff166003811115611c8457611c836126e9565b5b6003811115611c9657611c956126e9565b5b815250509050919050565b6000611cad60046123e2565b905090565b60606000611cc060046123e2565b905060008060005b83811015611e8f5760026003811115611ce457611ce36126e9565b5b60018083611cf29190612a49565b81548110611d0357611d026128ca565b5b906000526020600020906005020160040160009054906101000a900460ff166003811115611d3457611d336126e9565b5b03611e7c573373ffffffffffffffffffffffffffffffffffffffff1660018083611d5e9190612a49565b81548110611d6f57611d6e6128ca565b5b9060005260206000209060050201600201600060028110611d9357611d926128ca565b5b0160009054906101000a900473ffffffffffffffffffffffffffffffffffffffff1673ffffffffffffffffffffffffffffffffffffffff161480611e6657503373ffffffffffffffffffffffffffffffffffffffff1660018083611df79190612a49565b81548110611e0857611e076128ca565b5b9060005260206000209060050201600201600160028110611e2c57611e2b6128ca565b5b0160009054906101000a900473ffffffffffffffffffffffffffffffffffffffff1673ffffffffffffffffffffffffffffffffffffffff16145b15611e7b57600183611e789190612a49565b92505b5b8080611e8790612a7d565b915050611cc8565b5060008267ffffffffffffffff811115611eac57611eab612ac5565b5b604051908082528060200260200182016040528015611ee557816020015b611ed261248f565b815260200190600190039081611eca5790505b50905060005b848110156121d25760026003811115611f0757611f066126e9565b5b60018083611f159190612a49565b81548110611f2657611f256128ca565b5b906000526020600020906005020160040160009054906101000a900460ff166003811115611f5757611f566126e9565b5b036121bf573373ffffffffffffffffffffffffffffffffffffffff1660018083611f819190612a49565b81548110611f9257611f916128ca565b5b9060005260206000209060050201600201600060028110611fb657611fb56128ca565b5b0160009054906101000a900473ffffffffffffffffffffffffffffffffffffffff1673ffffffffffffffffffffffffffffffffffffffff16148061208957503373ffffffffffffffffffffffffffffffffffffffff166001808361201a9190612a49565b8154811061202b5761202a6128ca565b5b906000526020600020906005020160020160016002811061204f5761204e6128ca565b5b0160009054906101000a900473ffffffffffffffffffffffffffffffffffffffff1673ffffffffffffffffffffffffffffffffffffffff16145b156121be576001808261209c9190612a49565b815481106120ad576120ac6128ca565b5b906000526020600020906005020160405180608001604052908160008201548152602001600182015481526020016002820160028060200260405190810160405280929190826002801561214c576020028201915b8160009054906101000a900473ffffffffffffffffffffffffffffffffffffffff1673ffffffffffffffffffffffffffffffffffffffff1681526020019060010190808311612102575b505050505081526020016004820160009054906101000a900460ff16600381111561217a576121796126e9565b5b600381111561218c5761218b6126e9565b5b815250508284815181106121a3576121a26128ca565b5b60200260200101819052506001836121bb9190612a49565b92505b5b80806121ca90612a7d565b915050611eeb565b508094505050505090565b6000806000838152602001908152602001600020905060006003811115612207576122066126e9565b5b8160040160009054906101000a900460ff16600381111561222b5761222a6126e9565b5b14612262576040517f4c1777d800000000000000000000000000000000000000000000000000000000815260040160405180910390fd5b338160020160016002811061227a576122796128ca565b5b0160006101000a81548173ffffffffffffffffffffffffffffffffffffffff021916908373ffffffffffffffffffffffffffffffffffffffff1602179055506000600560009054906101000a900473ffffffffffffffffffffffffffffffffffffffff1673ffffffffffffffffffffffffffffffffffffffff166323b872dd333085600101546040518463ffffffff1660e01b815260040161231e939291906129e3565b6020604051808303816000875af115801561233d573d6000803e3d6000fd5b505050506040513d601f19601f8201168201806040525081019061236191906129b6565b90508061239a576040517fabab8fc900000000000000000000000000000000000000000000000000000000815260040160405180910390fd5b60018260040160006101000a81548160ff021916908360038111156123c2576123c16126e9565b5b0217905550505050565b6001816000016000828254019250508190555050565b600081600001549050919050565b6040518060400160405280600290602082028036833780820191505090505090565b826002810192821561247e579160200282015b8281111561247d5782518260006101000a81548173ffffffffffffffffffffffffffffffffffffffff021916908373ffffffffffffffffffffffffffffffffffffffff16021790555091602001919060010190612425565b5b50905061248b91906124cf565b5090565b604051806080016040528060008152602001600081526020016124b06123f0565b8152602001600060038111156124c9576124c86126e9565b5b81525090565b5b808211156124e85760008160009055506001016124d0565b5090565b600080fd5b6000819050919050565b612504816124f1565b811461250f57600080fd5b50565b600081359050612521816124fb565b92915050565b6000806000606084860312156125405761253f6124ec565b5b600061254e86828701612512565b935050602061255f86828701612512565b925050604061257086828701612512565b9150509250925092565b6000602082840312156125905761258f6124ec565b5b600061259e84828501612512565b91505092915050565b6125b0816124f1565b82525050565b60006020820190506125cb60008301846125a7565b92915050565b600081519050919050565b600082825260208201905092915050565b6000819050602082019050919050565b612606816124f1565b82525050565b600060029050919050565b600081905092915050565b6000819050919050565b600073ffffffffffffffffffffffffffffffffffffffff82169050919050565b60006126578261262c565b9050919050565b6126678161264c565b82525050565b6000612679838361265e565b60208301905092915050565b6000602082019050919050565b61269b8161260c565b6126a58184612617565b92506126b082612622565b8060005b838110156126e15781516126c8878261266d565b96506126d383612685565b9250506001810190506126b4565b505050505050565b7f4e487b7100000000000000000000000000000000000000000000000000000000600052602160045260246000fd5b60048110612729576127286126e9565b5b50565b600081905061273a82612718565b919050565b600061274a8261272c565b9050919050565b61275a8161273f565b82525050565b60a08201600082015161277660008501826125fd565b50602082015161278960208501826125fd565b50604082015161279c6040850182612692565b5060608201516127af6080850182612751565b50505050565b60006127c18383612760565b60a08301905092915050565b6000602082019050919050565b60006127e5826125d1565b6127ef81856125dc565b93506127fa836125ed565b8060005b8381101561282b57815161281288826127b5565b975061281d836127cd565b9250506001810190506127fe565b5085935050505092915050565b6000602082019050818103600083015261285281846127da565b905092915050565b60a08201600082015161287060008501826125fd565b50602082015161288360208501826125fd565b5060408201516128966040850182612692565b5060608201516128a96080850182612751565b50505050565b600060a0820190506128c4600083018461285a565b92915050565b7f4e487b7100000000000000000000000000000000000000000000000000000000600052603260045260246000fd5b6000819050919050565b61291461290f826124f1565b6128f9565b82525050565b60006129268285612903565b6020820191506129368284612903565b6020820191508190509392505050565b61294f8161264c565b82525050565b600060408201905061296a6000830185612946565b61297760208301846125a7565b9392505050565b60008115159050919050565b6129938161297e565b811461299e57600080fd5b50565b6000815190506129b08161298a565b92915050565b6000602082840312156129cc576129cb6124ec565b5b60006129da848285016129a1565b91505092915050565b60006060820190506129f86000830186612946565b612a056020830185612946565b612a1260408301846125a7565b949350505050565b7f4e487b7100000000000000000000000000000000000000000000000000000000600052601160045260246000fd5b6000612a54826124f1565b9150612a5f836124f1565b9250828201905080821115612a7757612a76612a1a565b5b92915050565b6000612a88826124f1565b91507fffffffffffffffffffffffffffffffffffffffffffffffffffffffffffffffff8203612aba57612ab9612a1a565b5b600182019050919050565b7f4e487b7100000000000000000000000000000000000000000000000000000000600052604160045260246000fdfea264697066735822122071db315b7fe77f1193eaea7e83216221041fae750e8555660dd32cd3e1c9642e64736f6c63430008110033",
  "devdoc": {
    "kind": "dev",
    "methods": {},
    "version": 1
  },
  "userdoc": {
    "kind": "user",
    "methods": {},
    "version": 1
  },
  "storageLayout": {
    "storage": [
      {
        "astId": 186,
        "contract": "contracts/RockPaperScissors.sol:RockPaperScissors",
        "label": "idToGame",
        "offset": 0,
        "slot": "0",
        "type": "t_mapping(t_uint256,t_struct(Game)176_storage)"
      },
      {
        "astId": 190,
        "contract": "contracts/RockPaperScissors.sol:RockPaperScissors",
        "label": "games",
        "offset": 0,
        "slot": "1",
        "type": "t_array(t_struct(Game)176_storage)dyn_storage"
      },
      {
        "astId": 197,
        "contract": "contracts/RockPaperScissors.sol:RockPaperScissors",
        "label": "moves",
        "offset": 0,
        "slot": "2",
        "type": "t_mapping(t_uint256,t_mapping(t_address,t_struct(Move)181_storage))"
      },
      {
        "astId": 201,
        "contract": "contracts/RockPaperScissors.sol:RockPaperScissors",
        "label": "winningMoves",
        "offset": 0,
        "slot": "3",
        "type": "t_mapping(t_uint256,t_uint256)"
      },
      {
        "astId": 204,
        "contract": "contracts/RockPaperScissors.sol:RockPaperScissors",
        "label": "gameId",
        "offset": 0,
        "slot": "4",
        "type": "t_struct(Counter)71_storage"
      },
      {
        "astId": 207,
        "contract": "contracts/RockPaperScissors.sol:RockPaperScissors",
        "label": "tokenContract",
        "offset": 0,
        "slot": "5",
        "type": "t_contract(IERC20)68"
      }
    ],
    "types": {
      "t_address": {
        "encoding": "inplace",
        "label": "address",
        "numberOfBytes": "20"
      },
      "t_array(t_address)2_storage": {
        "base": "t_address",
        "encoding": "inplace",
        "label": "address[2]",
        "numberOfBytes": "64"
      },
      "t_array(t_struct(Game)176_storage)dyn_storage": {
        "base": "t_struct(Game)176_storage",
        "encoding": "dynamic_array",
        "label": "struct RockPaperScissors.Game[]",
        "numberOfBytes": "32"
      },
      "t_bytes32": {
        "encoding": "inplace",
        "label": "bytes32",
        "numberOfBytes": "32"
      },
      "t_contract(IERC20)68": {
        "encoding": "inplace",
        "label": "contract IERC20",
        "numberOfBytes": "20"
      },
      "t_enum(State)164": {
        "encoding": "inplace",
        "label": "enum RockPaperScissors.State",
        "numberOfBytes": "1"
      },
      "t_mapping(t_address,t_struct(Move)181_storage)": {
        "encoding": "mapping",
        "key": "t_address",
        "label": "mapping(address => struct RockPaperScissors.Move)",
        "numberOfBytes": "32",
        "value": "t_struct(Move)181_storage"
      },
      "t_mapping(t_uint256,t_mapping(t_address,t_struct(Move)181_storage))": {
        "encoding": "mapping",
        "key": "t_uint256",
        "label": "mapping(uint256 => mapping(address => struct RockPaperScissors.Move))",
        "numberOfBytes": "32",
        "value": "t_mapping(t_address,t_struct(Move)181_storage)"
      },
      "t_mapping(t_uint256,t_struct(Game)176_storage)": {
        "encoding": "mapping",
        "key": "t_uint256",
        "label": "mapping(uint256 => struct RockPaperScissors.Game)",
        "numberOfBytes": "32",
        "value": "t_struct(Game)176_storage"
      },
      "t_mapping(t_uint256,t_uint256)": {
        "encoding": "mapping",
        "key": "t_uint256",
        "label": "mapping(uint256 => uint256)",
        "numberOfBytes": "32",
        "value": "t_uint256"
      },
      "t_struct(Counter)71_storage": {
        "encoding": "inplace",
        "label": "struct Counters.Counter",
        "members": [
          {
            "astId": 70,
            "contract": "contracts/RockPaperScissors.sol:RockPaperScissors",
            "label": "_value",
            "offset": 0,
            "slot": "0",
            "type": "t_uint256"
          }
        ],
        "numberOfBytes": "32"
      },
      "t_struct(Game)176_storage": {
        "encoding": "inplace",
        "label": "struct RockPaperScissors.Game",
        "members": [
          {
            "astId": 166,
            "contract": "contracts/RockPaperScissors.sol:RockPaperScissors",
            "label": "id",
            "offset": 0,
            "slot": "0",
            "type": "t_uint256"
          },
          {
            "astId": 168,
            "contract": "contracts/RockPaperScissors.sol:RockPaperScissors",
            "label": "stakeAmount",
            "offset": 0,
            "slot": "1",
            "type": "t_uint256"
          },
          {
            "astId": 172,
            "contract": "contracts/RockPaperScissors.sol:RockPaperScissors",
            "label": "players",
            "offset": 0,
            "slot": "2",
            "type": "t_array(t_address)2_storage"
          },
          {
            "astId": 175,
            "contract": "contracts/RockPaperScissors.sol:RockPaperScissors",
            "label": "state",
            "offset": 0,
            "slot": "4",
            "type": "t_enum(State)164"
          }
        ],
        "numberOfBytes": "160"
      },
      "t_struct(Move)181_storage": {
        "encoding": "inplace",
        "label": "struct RockPaperScissors.Move",
        "members": [
          {
            "astId": 178,
            "contract": "contracts/RockPaperScissors.sol:RockPaperScissors",
            "label": "hash",
            "offset": 0,
            "slot": "0",
            "type": "t_bytes32"
          },
          {
            "astId": 180,
            "contract": "contracts/RockPaperScissors.sol:RockPaperScissors",
            "label": "value",
            "offset": 0,
            "slot": "1",
            "type": "t_uint256"
          }
        ],
        "numberOfBytes": "64"
      },
      "t_uint256": {
        "encoding": "inplace",
        "label": "uint256",
        "numberOfBytes": "32"
      }
    }
  }
}