{
  "address": "0xe7f1725E7734CE288F8367e1Bb143E90bb3F0512",
  "abi": [
    {
      "inputs": [
        {
          "internalType": "address",
          "name": "_tContract",
          "type": "address"
        }
      ],
      "stateMutability": "nonpayable",
      "type": "constructor"
    },
    {
      "inputs": [],
      "name": "GameIsNotInJoinedState",
      "type": "error"
    },
    {
      "inputs": [],
      "name": "LowStakeAmount",
      "type": "error"
    },
    {
      "inputs": [],
      "name": "MoveIdNotMatched",
      "type": "error"
    },
    {
      "inputs": [],
      "name": "NotInComittedState",
      "type": "error"
    },
    {
      "inputs": [],
      "name": "NotInCreatedState",
      "type": "error"
    },
    {
      "inputs": [],
      "name": "OnlyPlayersCanCall",
      "type": "error"
    },
    {
      "inputs": [],
      "name": "PaymentError",
      "type": "error"
    },
    {
      "inputs": [],
      "name": "UnapprovedMove",
      "type": "error"
    },
    {
      "inputs": [
        {
          "internalType": "uint256",
          "name": "_gameId",
          "type": "uint256"
        },
        {
          "internalType": "uint256",
          "name": "moveId",
          "type": "uint256"
        },
        {
          "internalType": "uint256",
          "name": "salt",
          "type": "uint256"
        }
      ],
      "name": "commitMove",
      "outputs": [],
      "stateMutability": "nonpayable",
      "type": "function"
    },
    {
      "inputs": [
        {
          "internalType": "uint256",
          "name": "_sAmount",
          "type": "uint256"
        }
      ],
      "name": "createGame",
      "outputs": [],
      "stateMutability": "payable",
      "type": "function"
    },
    {
      "inputs": [],
      "name": "getAvailableGame",
      "outputs": [
        {
          "components": [
            {
              "internalType": "uint256",
              "name": "id",
              "type": "uint256"
            },
            {
              "internalType": "uint256",
              "name": "stakeAmount",
              "type": "uint256"
            },
            {
              "internalType": "address[2]",
              "name": "players",
              "type": "address[2]"
            },
            {
              "internalType": "enum RockPaperScissors.State",
              "name": "state",
              "type": "uint8"
            }
          ],
          "internalType": "struct RockPaperScissors.Game[]",
          "name": "",
          "type": "tuple[]"
        }
      ],
      "stateMutability": "view",
      "type": "function"
    },
    {
      "inputs": [],
      "name": "getGameId",
      "outputs": [
        {
          "internalType": "uint256",
          "name": "",
          "type": "uint256"
        }
      ],
      "stateMutability": "view",
      "type": "function"
    },
    {
      "inputs": [
        {
          "internalType": "uint256",
          "name": "_id",
          "type": "uint256"
        }
      ],
      "name": "getIdToGame",
      "outputs": [
        {
          "components": [
            {
              "internalType": "uint256",
              "name": "id",
              "type": "uint256"
            },
            {
              "internalType": "uint256",
              "name": "stakeAmount",
              "type": "uint256"
            },
            {
              "internalType": "address[2]",
              "name": "players",
              "type": "address[2]"
            },
            {
              "internalType": "enum RockPaperScissors.State",
              "name": "state",
              "type": "uint8"
            }
          ],
          "internalType": "struct RockPaperScissors.Game",
          "name": "",
          "type": "tuple"
        }
      ],
      "stateMutability": "view",
      "type": "function"
    },
    {
      "inputs": [
        {
          "internalType": "address",
          "name": "_player",
          "type": "address"
        }
      ],
      "name": "getPlayersComitedGamed",
      "outputs": [
        {
          "components": [
            {
              "internalType": "uint256",
              "name": "id",
              "type": "uint256"
            },
            {
              "internalType": "uint256",
              "name": "stakeAmount",
              "type": "uint256"
            },
            {
              "internalType": "address[2]",
              "name": "players",
              "type": "address[2]"
            },
            {
              "internalType": "enum RockPaperScissors.State",
              "name": "state",
              "type": "uint8"
            }
          ],
          "internalType": "struct RockPaperScissors.Game[]",
          "name": "",
          "type": "tuple[]"
        }
      ],
      "stateMutability": "view",
      "type": "function"
    },
    {
      "inputs": [
        {
          "internalType": "address",
          "name": "_player",
          "type": "address"
        }
      ],
      "name": "getPlayersJoinedGamed",
      "outputs": [
        {
          "components": [
            {
              "internalType": "uint256",
              "name": "id",
              "type": "uint256"
            },
            {
              "internalType": "uint256",
              "name": "stakeAmount",
              "type": "uint256"
            },
            {
              "internalType": "address[2]",
              "name": "players",
              "type": "address[2]"
            },
            {
              "internalType": "enum RockPaperScissors.State",
              "name": "state",
              "type": "uint8"
            }
          ],
          "internalType": "struct RockPaperScissors.Game[]",
          "name": "",
          "type": "tuple[]"
        }
      ],
      "stateMutability": "view",
      "type": "function"
    },
    {
      "inputs": [],
      "name": "getRevealedGamed",
      "outputs": [
        {
          "components": [
            {
              "internalType": "uint256",
              "name": "id",
              "type": "uint256"
            },
            {
              "internalType": "uint256",
              "name": "stakeAmount",
              "type": "uint256"
            },
            {
              "internalType": "address[2]",
              "name": "players",
              "type": "address[2]"
            },
            {
              "internalType": "enum RockPaperScissors.State",
              "name": "state",
              "type": "uint8"
            }
          ],
          "internalType": "struct RockPaperScissors.Game[]",
          "name": "",
          "type": "tuple[]"
        }
      ],
      "stateMutability": "view",
      "type": "function"
    },
    {
      "inputs": [
        {
          "internalType": "address",
          "name": "_user",
          "type": "address"
        }
      ],
      "name": "getUserCreatedGame",
      "outputs": [
        {
          "components": [
            {
              "internalType": "uint256",
              "name": "id",
              "type": "uint256"
            },
            {
              "internalType": "uint256",
              "name": "stakeAmount",
              "type": "uint256"
            },
            {
              "internalType": "address[2]",
              "name": "players",
              "type": "address[2]"
            },
            {
              "internalType": "enum RockPaperScissors.State",
              "name": "state",
              "type": "uint8"
            }
          ],
          "internalType": "struct RockPaperScissors.Game[]",
          "name": "",
          "type": "tuple[]"
        }
      ],
      "stateMutability": "view",
      "type": "function"
    },
    {
      "inputs": [
        {
          "internalType": "uint256",
          "name": "_gameId",
          "type": "uint256"
        }
      ],
      "name": "joinGame",
      "outputs": [],
      "stateMutability": "payable",
      "type": "function"
    },
    {
      "inputs": [
        {
          "internalType": "uint256",
          "name": "_gameId",
          "type": "uint256"
        },
        {
          "internalType": "uint256",
          "name": "moveId",
          "type": "uint256"
        },
        {
          "internalType": "uint256",
          "name": "salt",
          "type": "uint256"
        }
      ],
      "name": "revealMove",
      "outputs": [],
      "stateMutability": "nonpayable",
      "type": "function"
    },
    {
      "inputs": [
        {
          "internalType": "uint256",
          "name": "",
          "type": "uint256"
        }
      ],
      "name": "winningMoves",
      "outputs": [
        {
          "internalType": "uint256",
          "name": "",
          "type": "uint256"
        }
      ],
      "stateMutability": "view",
      "type": "function"
    }
  ],
  "transactionHash": "0xa720ddde687b5a5de7ae0a9e31b2b8b971701007fe841988735a7755c8a0236d",
  "args": [
    "0x5FbDB2315678afecb367f032d93F642f64180aa3"
  ],
  "numDeployments": 1,
  "solcInputHash": "228c349f248b1a22e830b98f6f88c407",
  "bytecode": "0x60806040523480156200001157600080fd5b5060405162002eb838038062002eb8833981810160405281019062000037919062000136565b600380600060018152602001908152602001600020819055506001600360006002815260200190815260200160002081905550600260036000600381526020019081526020016000208190555080600560006101000a81548173ffffffffffffffffffffffffffffffffffffffff021916908373ffffffffffffffffffffffffffffffffffffffff1602179055505062000168565b600080fd5b600073ffffffffffffffffffffffffffffffffffffffff82169050919050565b6000620000fe82620000d1565b9050919050565b6200011081620000f1565b81146200011c57600080fd5b50565b600081519050620001308162000105565b92915050565b6000602082840312156200014f576200014e620000cc565b5b60006200015f848285016200011f565b91505092915050565b612d4080620001786000396000f3fe6080604052600436106100a75760003560e01c80639ac450cd116100645780639ac450cd146101d1578063a503813e146101fc578063b93c1ad214610227578063c0bd835114610264578063efaa55a01461028f578063f698cd01146102ab576100a7565b8063025ed496146100ac57806334d3ce4b146100e9578063354fe54a1461011257806348e837b91461013b5780634b4cbb451461015757806383a631d314610194575b600080fd5b3480156100b857600080fd5b506100d360048036038101906100ce919061270c565b6102e8565b6040516100e09190612978565b60405180910390f35b3480156100f557600080fd5b50610110600480360381019061010b91906129c6565b6107ac565b005b34801561011e57600080fd5b50610139600480360381019061013491906129c6565b610b9d565b005b61015560048036038101906101509190612a19565b611302565b005b34801561016357600080fd5b5061017e60048036038101906101799190612a19565b6115cf565b60405161018b9190612a55565b60405180910390f35b3480156101a057600080fd5b506101bb60048036038101906101b6919061270c565b6115e7565b6040516101c89190612978565b60405180910390f35b3480156101dd57600080fd5b506101e661194b565b6040516101f39190612978565b60405180910390f35b34801561020857600080fd5b50610211611be1565b60405161021e9190612978565b60405180910390f35b34801561023357600080fd5b5061024e60048036038101906102499190612a19565b611ee7565b60405161025b9190612ac5565b60405180910390f35b34801561027057600080fd5b50610279611fdd565b6040516102869190612a55565b60405180910390f35b6102a960048036038101906102a49190612a19565b611fee565b005b3480156102b757600080fd5b506102d260048036038101906102cd919061270c565b6121dd565b6040516102df9190612978565b60405180910390f35b606060006102f66004612589565b905060008060005b83811015610498576002600381111561031a57610319612829565b5b60008060018461032a9190612b0f565b815260200190815260200160002060040160009054906101000a900460ff16600381111561035b5761035a612829565b5b03610485578573ffffffffffffffffffffffffffffffffffffffff166000806001846103879190612b0f565b81526020019081526020016000206002016000600281106103ab576103aa612b43565b5b0160009054906101000a900473ffffffffffffffffffffffffffffffffffffffff1673ffffffffffffffffffffffffffffffffffffffff16148061046f57508573ffffffffffffffffffffffffffffffffffffffff166000806001846104119190612b0f565b815260200190815260200160002060020160016002811061043557610434612b43565b5b0160009054906101000a900473ffffffffffffffffffffffffffffffffffffffff1673ffffffffffffffffffffffffffffffffffffffff16145b15610484576001836104819190612b0f565b92505b5b808061049090612b72565b9150506102fe565b5060008267ffffffffffffffff8111156104b5576104b4612bba565b5b6040519080825280602002602001820160405280156104ee57816020015b6104db6125ad565b8152602001906001900390816104d35790505b50905060005b8481101561079f57600260038111156105105761050f612829565b5b6000806001846105209190612b0f565b815260200190815260200160002060040160009054906101000a900460ff16600381111561055157610550612829565b5b0361078c578673ffffffffffffffffffffffffffffffffffffffff1660008060018461057d9190612b0f565b81526020019081526020016000206002016000600281106105a1576105a0612b43565b5b0160009054906101000a900473ffffffffffffffffffffffffffffffffffffffff1673ffffffffffffffffffffffffffffffffffffffff16148061066557508673ffffffffffffffffffffffffffffffffffffffff166000806001846106079190612b0f565b815260200190815260200160002060020160016002811061062b5761062a612b43565b5b0160009054906101000a900473ffffffffffffffffffffffffffffffffffffffff1673ffffffffffffffffffffffffffffffffffffffff16145b1561078b5760008060018361067a9190612b0f565b8152602001908152602001600020604051806080016040529081600082015481526020016001820154815260200160028201600280602002604051908101604052809291908260028015610719576020028201915b8160009054906101000a900473ffffffffffffffffffffffffffffffffffffffff1673ffffffffffffffffffffffffffffffffffffffff16815260200190600101908083116106cf575b505050505081526020016004820160009054906101000a900460ff16600381111561074757610746612829565b5b600381111561075957610758612829565b5b815250508284815181106107705761076f612b43565b5b60200260200101819052506001836107889190612b0f565b92505b5b808061079790612b72565b9150506104f4565b5080945050505050919050565b60008060008581526020019081526020016000209050600160038111156107d6576107d5612829565b5b8160040160009054906101000a900460ff1660038111156107fa576107f9612829565b5b14610831576040517f11ec21f400000000000000000000000000000000000000000000000000000000815260040160405180910390fd5b3373ffffffffffffffffffffffffffffffffffffffff168160020160006002811061085f5761085e612b43565b5b0160009054906101000a900473ffffffffffffffffffffffffffffffffffffffff1673ffffffffffffffffffffffffffffffffffffffff1614158061090857503373ffffffffffffffffffffffffffffffffffffffff16816002016001600281106108cd576108cc612b43565b5b0160009054906101000a900473ffffffffffffffffffffffffffffffffffffffff1673ffffffffffffffffffffffffffffffffffffffff1614155b1561093f576040517f571b131800000000000000000000000000000000000000000000000000000000815260040160405180910390fd5b600183141580610950575060028314155b8061095c575060038314155b15610993576040517fb2b85f1500000000000000000000000000000000000000000000000000000000815260040160405180910390fd5b604051806040016040528084846040516020016109b1929190612c0a565b60405160208183030381529060405280519060200120815260200160008152506002600086815260200190815260200160002060003373ffffffffffffffffffffffffffffffffffffffff1673ffffffffffffffffffffffffffffffffffffffff16815260200190815260200160002060008201518160000155602082015181600101559050506000801b60026000868152602001908152602001600020600083600201600060028110610a6857610a67612b43565b5b0160009054906101000a900473ffffffffffffffffffffffffffffffffffffffff1673ffffffffffffffffffffffffffffffffffffffff1673ffffffffffffffffffffffffffffffffffffffff1681526020019081526020016000206000015414158015610b6457506000801b60026000868152602001908152602001600020600083600201600160028110610b0157610b00612b43565b5b0160009054906101000a900473ffffffffffffffffffffffffffffffffffffffff1673ffffffffffffffffffffffffffffffffffffffff1673ffffffffffffffffffffffffffffffffffffffff1681526020019081526020016000206000015414155b15610b975760028160040160006101000a81548160ff02191690836003811115610b9157610b90612829565b5b02179055505b50505050565b60008060008581526020019081526020016000209050600060026000868152602001908152602001600020600083600201600060028110610be157610be0612b43565b5b0160009054906101000a900473ffffffffffffffffffffffffffffffffffffffff1673ffffffffffffffffffffffffffffffffffffffff1673ffffffffffffffffffffffffffffffffffffffff168152602001908152602001600020604051806040016040529081600082015481526020016001820154815250509050600060026000878152602001908152602001600020600084600201600160028110610c8c57610c8b612b43565b5b0160009054906101000a900473ffffffffffffffffffffffffffffffffffffffff1673ffffffffffffffffffffffffffffffffffffffff1673ffffffffffffffffffffffffffffffffffffffff16815260200190815260200160002060405180604001604052908160008201548152602001600182015481525050905060006002600088815260200190815260200160002060003373ffffffffffffffffffffffffffffffffffffffff1673ffffffffffffffffffffffffffffffffffffffff16815260200190815260200160002060405180604001604052908160008201548152602001600182015481525050905060026003811115610d9057610d8f612829565b5b8460040160009054906101000a900460ff166003811115610db457610db3612829565b5b14610deb576040517fb8cf966b00000000000000000000000000000000000000000000000000000000815260040160405180910390fd5b3373ffffffffffffffffffffffffffffffffffffffff1684600201600060028110610e1957610e18612b43565b5b0160009054906101000a900473ffffffffffffffffffffffffffffffffffffffff1673ffffffffffffffffffffffffffffffffffffffff16141580610ec257503373ffffffffffffffffffffffffffffffffffffffff1684600201600160028110610e8757610e86612b43565b5b0160009054906101000a900473ffffffffffffffffffffffffffffffffffffffff1673ffffffffffffffffffffffffffffffffffffffff1614155b15610ef9576040517f571b131800000000000000000000000000000000000000000000000000000000815260040160405180910390fd5b8585604051602001610f0c929190612c0a565b60405160208183030381529060405280519060200120816000015114610f5e576040517f8b7ff8e500000000000000000000000000000000000000000000000000000000815260040160405180910390fd5b858160200181815250506000836020015114158015610f8257506000826020015114155b156112f857816020015183602001510361118657600560009054906101000a900473ffffffffffffffffffffffffffffffffffffffff1673ffffffffffffffffffffffffffffffffffffffff1663a9059cbb85600201600060028110610feb57610fea612b43565b5b0160009054906101000a900473ffffffffffffffffffffffffffffffffffffffff1686600101546040518363ffffffff1660e01b815260040161102f929190612c45565b6020604051808303816000875af115801561104e573d6000803e3d6000fd5b505050506040513d601f19601f820116820180604052508101906110729190612ca6565b50600560009054906101000a900473ffffffffffffffffffffffffffffffffffffffff1673ffffffffffffffffffffffffffffffffffffffff1663a9059cbb856002016001600281106110c8576110c7612b43565b5b0160009054906101000a900473ffffffffffffffffffffffffffffffffffffffff1686600101546040518363ffffffff1660e01b815260040161110c929190612c45565b6020604051808303816000875af115801561112b573d6000803e3d6000fd5b505050506040513d601f19601f8201168201806040525081019061114f9190612ca6565b5060038460040160006101000a81548160ff0219169083600381111561117857611177612829565b5b0217905550505050506112fd565b60008260200151600360008660200151815260200190815260200160002054146111e857846002016001600281106111c1576111c0612b43565b5b0160009054906101000a900473ffffffffffffffffffffffffffffffffffffffff16611222565b846002016000600281106111ff576111fe612b43565b5b0160009054906101000a900473ffffffffffffffffffffffffffffffffffffffff165b9050600560009054906101000a900473ffffffffffffffffffffffffffffffffffffffff1673ffffffffffffffffffffffffffffffffffffffff1663a9059cbb8287600101546040518363ffffffff1660e01b8152600401611285929190612c45565b6020604051808303816000875af11580156112a4573d6000803e3d6000fd5b505050506040513d601f19601f820116820180604052508101906112c89190612ca6565b5060038560040160006101000a81548160ff021916908360038111156112f1576112f0612829565b5b0217905550505b505050505b505050565b60018110806113115750600081145b15611348576040517fa1b0d46900000000000000000000000000000000000000000000000000000000815260040160405180910390fd5b6113506125ed565b338160006002811061136557611364612b43565b5b602002019073ffffffffffffffffffffffffffffffffffffffff16908173ffffffffffffffffffffffffffffffffffffffff16815250506113a66004612597565b6000600560009054906101000a900473ffffffffffffffffffffffffffffffffffffffff1673ffffffffffffffffffffffffffffffffffffffff166323b872dd3330866040518463ffffffff1660e01b815260040161140793929190612cd3565b6020604051808303816000875af1158015611426573d6000803e3d6000fd5b505050506040513d601f19601f8201168201806040525081019061144a9190612ca6565b905080611483576040517fabab8fc900000000000000000000000000000000000000000000000000000000815260040160405180910390fd5b6000604051806080016040528061149a6004612589565b8152602001858152602001848152602001600060038111156114bf576114be612829565b5b8152509050806000806114d26004612589565b8152602001908152602001600020600082015181600001556020820151816001015560408201518160020190600261150b92919061260f565b5060608201518160040160006101000a81548160ff0219169083600381111561153757611536612829565b5b02179055509050506001819080600181540180825580915050600190039060005260206000209060050201600090919091909150600082015181600001556020820151816001015560408201518160020190600261159692919061260f565b5060608201518160040160006101000a81548160ff021916908360038111156115c2576115c1612829565b5b0217905550505050505050565b60036020528060005260406000206000915090505481565b606060006115f56004612589565b9050600080600090505b828110156116b2578473ffffffffffffffffffffffffffffffffffffffff1660008060018461162e9190612b0f565b815260200190815260200160002060020160006002811061165257611651612b43565b5b0160009054906101000a900473ffffffffffffffffffffffffffffffffffffffff1673ffffffffffffffffffffffffffffffffffffffff160361169f5760018261169c9190612b0f565b91505b80806116aa90612b72565b9150506115ff565b506000810361171957600067ffffffffffffffff8111156116d6576116d5612bba565b5b60405190808252806020026020018201604052801561170f57816020015b6116fc6125ad565b8152602001906001900390816116f45790505b5092505050611946565b60008167ffffffffffffffff81111561173557611734612bba565b5b60405190808252806020026020018201604052801561176e57816020015b61175b6125ad565b8152602001906001900390816117535790505b509050600080600090505b8481101561193d578673ffffffffffffffffffffffffffffffffffffffff166000806001846117a89190612b0f565b81526020019081526020016000206002016000600281106117cc576117cb612b43565b5b0160009054906101000a900473ffffffffffffffffffffffffffffffffffffffff1673ffffffffffffffffffffffffffffffffffffffff160361192a576000806001836118199190612b0f565b81526020019081526020016000206040518060800160405290816000820154815260200160018201548152602001600282016002806020026040519081016040528092919082600280156118b8576020028201915b8160009054906101000a900473ffffffffffffffffffffffffffffffffffffffff1673ffffffffffffffffffffffffffffffffffffffff168152602001906001019080831161186e575b505050505081526020016004820160009054906101000a900460ff1660038111156118e6576118e5612829565b5b60038111156118f8576118f7612829565b5b8152505083838151811061190f5761190e612b43565b5b60200260200101819052506001826119279190612b0f565b91505b808061193590612b72565b915050611779565b50819450505050505b919050565b606060006119596004612589565b905060008060005b838110156119e55760038081111561197c5761197b612829565b5b60008060018461198c9190612b0f565b815260200190815260200160002060040160009054906101000a900460ff1660038111156119bd576119bc612829565b5b036119d2576001836119cf9190612b0f565b92505b80806119dd90612b72565b915050611961565b5060008267ffffffffffffffff811115611a0257611a01612bba565b5b604051908082528060200260200182016040528015611a3b57816020015b611a286125ad565b815260200190600190039081611a205790505b50905060005b84811015611bd657600380811115611a5c57611a5b612829565b5b600080600184611a6c9190612b0f565b815260200190815260200160002060040160009054906101000a900460ff166003811115611a9d57611a9c612829565b5b03611bc357600080600183611ab29190612b0f565b8152602001908152602001600020604051806080016040529081600082015481526020016001820154815260200160028201600280602002604051908101604052809291908260028015611b51576020028201915b8160009054906101000a900473ffffffffffffffffffffffffffffffffffffffff1673ffffffffffffffffffffffffffffffffffffffff1681526020019060010190808311611b07575b505050505081526020016004820160009054906101000a900460ff166003811115611b7f57611b7e612829565b5b6003811115611b9157611b90612829565b5b81525050828481518110611ba857611ba7612b43565b5b6020026020010181905250600183611bc09190612b0f565b92505b8080611bce90612b72565b915050611a41565b508094505050505090565b60606000611bef6004612589565b9050600080600090505b82811015611c7e5760006003811115611c1557611c14612829565b5b600080600184611c259190612b0f565b815260200190815260200160002060040160009054906101000a900460ff166003811115611c5657611c55612829565b5b03611c6b57600182611c689190612b0f565b91505b8080611c7690612b72565b915050611bf9565b5060008103611ce557600067ffffffffffffffff811115611ca257611ca1612bba565b5b604051908082528060200260200182016040528015611cdb57816020015b611cc86125ad565b815260200190600190039081611cc05790505b5092505050611ee4565b60008167ffffffffffffffff811115611d0157611d00612bba565b5b604051908082528060200260200182016040528015611d3a57816020015b611d276125ad565b815260200190600190039081611d1f5790505b509050600080600090505b84811015611edb5760006003811115611d6157611d60612829565b5b600080600184611d719190612b0f565b815260200190815260200160002060040160009054906101000a900460ff166003811115611da257611da1612829565b5b03611ec857600080600183611db79190612b0f565b8152602001908152602001600020604051806080016040529081600082015481526020016001820154815260200160028201600280602002604051908101604052809291908260028015611e56576020028201915b8160009054906101000a900473ffffffffffffffffffffffffffffffffffffffff1673ffffffffffffffffffffffffffffffffffffffff1681526020019060010190808311611e0c575b505050505081526020016004820160009054906101000a900460ff166003811115611e8457611e83612829565b5b6003811115611e9657611e95612829565b5b81525050838381518110611ead57611eac612b43565b5b6020026020010181905250600182611ec59190612b0f565b91505b8080611ed390612b72565b915050611d45565b50819450505050505b90565b611eef6125ad565b600080838152602001908152602001600020604051806080016040529081600082015481526020016001820154815260200160028201600280602002604051908101604052809291908260028015611f92576020028201915b8160009054906101000a900473ffffffffffffffffffffffffffffffffffffffff1673ffffffffffffffffffffffffffffffffffffffff1681526020019060010190808311611f48575b505050505081526020016004820160009054906101000a900460ff166003811115611fc057611fbf612829565b5b6003811115611fd257611fd1612829565b5b815250509050919050565b6000611fe96004612589565b905090565b600080600083815260200190815260200160002090506000600381111561201857612017612829565b5b8160040160009054906101000a900460ff16600381111561203c5761203b612829565b5b14612073576040517f4c1777d800000000000000000000000000000000000000000000000000000000815260040160405180910390fd5b338160020160016002811061208b5761208a612b43565b5b0160006101000a81548173ffffffffffffffffffffffffffffffffffffffff021916908373ffffffffffffffffffffffffffffffffffffffff1602179055506000600560009054906101000a900473ffffffffffffffffffffffffffffffffffffffff1673ffffffffffffffffffffffffffffffffffffffff166323b872dd333085600101546040518463ffffffff1660e01b815260040161212f93929190612cd3565b6020604051808303816000875af115801561214e573d6000803e3d6000fd5b505050506040513d601f19601f820116820180604052508101906121729190612ca6565b9050806121ab576040517fabab8fc900000000000000000000000000000000000000000000000000000000815260040160405180910390fd5b60018260040160006101000a81548160ff021916908360038111156121d3576121d2612829565b5b0217905550505050565b606060006121eb6004612589565b905060008060005b83811015612301578573ffffffffffffffffffffffffffffffffffffffff166000806001846122229190612b0f565b815260200190815260200160002060020160016002811061224657612245612b43565b5b0160009054906101000a900473ffffffffffffffffffffffffffffffffffffffff1673ffffffffffffffffffffffffffffffffffffffff16036122ee576001600381111561229757612296612829565b5b6000806001846122a79190612b0f565b815260200190815260200160002060040160009054906101000a900460ff1660038111156122d8576122d7612829565b5b036122ed576001836122ea9190612b0f565b92505b5b80806122f990612b72565b9150506121f3565b5060008267ffffffffffffffff81111561231e5761231d612bba565b5b60405190808252806020026020018201604052801561235757816020015b6123446125ad565b81526020019060019003908161233c5790505b50905060005b8481101561257c578673ffffffffffffffffffffffffffffffffffffffff1660008060018461238c9190612b0f565b81526020019081526020016000206002016001600281106123b0576123af612b43565b5b0160009054906101000a900473ffffffffffffffffffffffffffffffffffffffff1673ffffffffffffffffffffffffffffffffffffffff1603612569576001600381111561240157612400612829565b5b6000806001846124119190612b0f565b815260200190815260200160002060040160009054906101000a900460ff16600381111561244257612441612829565b5b03612568576000806001836124579190612b0f565b81526020019081526020016000206040518060800160405290816000820154815260200160018201548152602001600282016002806020026040519081016040528092919082600280156124f6576020028201915b8160009054906101000a900473ffffffffffffffffffffffffffffffffffffffff1673ffffffffffffffffffffffffffffffffffffffff16815260200190600101908083116124ac575b505050505081526020016004820160009054906101000a900460ff16600381111561252457612523612829565b5b600381111561253657612535612829565b5b8152505082848151811061254d5761254c612b43565b5b60200260200101819052506001836125659190612b0f565b92505b5b808061257490612b72565b91505061235d565b5080945050505050919050565b600081600001549050919050565b6001816000016000828254019250508190555050565b604051806080016040528060008152602001600081526020016125ce6125ed565b8152602001600060038111156125e7576125e6612829565b5b81525090565b6040518060400160405280600290602082028036833780820191505090505090565b826002810192821561267b579160200282015b8281111561267a5782518260006101000a81548173ffffffffffffffffffffffffffffffffffffffff021916908373ffffffffffffffffffffffffffffffffffffffff16021790555091602001919060010190612622565b5b509050612688919061268c565b5090565b5b808211156126a557600081600090555060010161268d565b5090565b600080fd5b600073ffffffffffffffffffffffffffffffffffffffff82169050919050565b60006126d9826126ae565b9050919050565b6126e9816126ce565b81146126f457600080fd5b50565b600081359050612706816126e0565b92915050565b600060208284031215612722576127216126a9565b5b6000612730848285016126f7565b91505092915050565b600081519050919050565b600082825260208201905092915050565b6000819050602082019050919050565b6000819050919050565b61277881612765565b82525050565b600060029050919050565b600081905092915050565b6000819050919050565b6127a7816126ce565b82525050565b60006127b9838361279e565b60208301905092915050565b6000602082019050919050565b6127db8161277e565b6127e58184612789565b92506127f082612794565b8060005b8381101561282157815161280887826127ad565b9650612813836127c5565b9250506001810190506127f4565b505050505050565b7f4e487b7100000000000000000000000000000000000000000000000000000000600052602160045260246000fd5b6004811061286957612868612829565b5b50565b600081905061287a82612858565b919050565b600061288a8261286c565b9050919050565b61289a8161287f565b82525050565b60a0820160008201516128b6600085018261276f565b5060208201516128c9602085018261276f565b5060408201516128dc60408501826127d2565b5060608201516128ef6080850182612891565b50505050565b600061290183836128a0565b60a08301905092915050565b6000602082019050919050565b600061292582612739565b61292f8185612744565b935061293a83612755565b8060005b8381101561296b57815161295288826128f5565b975061295d8361290d565b92505060018101905061293e565b5085935050505092915050565b60006020820190508181036000830152612992818461291a565b905092915050565b6129a381612765565b81146129ae57600080fd5b50565b6000813590506129c08161299a565b92915050565b6000806000606084860312156129df576129de6126a9565b5b60006129ed868287016129b1565b93505060206129fe868287016129b1565b9250506040612a0f868287016129b1565b9150509250925092565b600060208284031215612a2f57612a2e6126a9565b5b6000612a3d848285016129b1565b91505092915050565b612a4f81612765565b82525050565b6000602082019050612a6a6000830184612a46565b92915050565b60a082016000820151612a86600085018261276f565b506020820151612a99602085018261276f565b506040820151612aac60408501826127d2565b506060820151612abf6080850182612891565b50505050565b600060a082019050612ada6000830184612a70565b92915050565b7f4e487b7100000000000000000000000000000000000000000000000000000000600052601160045260246000fd5b6000612b1a82612765565b9150612b2583612765565b9250828201905080821115612b3d57612b3c612ae0565b5b92915050565b7f4e487b7100000000000000000000000000000000000000000000000000000000600052603260045260246000fd5b6000612b7d82612765565b91507fffffffffffffffffffffffffffffffffffffffffffffffffffffffffffffffff8203612baf57612bae612ae0565b5b600182019050919050565b7f4e487b7100000000000000000000000000000000000000000000000000000000600052604160045260246000fd5b6000819050919050565b612c04612bff82612765565b612be9565b82525050565b6000612c168285612bf3565b602082019150612c268284612bf3565b6020820191508190509392505050565b612c3f816126ce565b82525050565b6000604082019050612c5a6000830185612c36565b612c676020830184612a46565b9392505050565b60008115159050919050565b612c8381612c6e565b8114612c8e57600080fd5b50565b600081519050612ca081612c7a565b92915050565b600060208284031215612cbc57612cbb6126a9565b5b6000612cca84828501612c91565b91505092915050565b6000606082019050612ce86000830186612c36565b612cf56020830185612c36565b612d026040830184612a46565b94935050505056fea2646970667358221220a15cd0bef1dfef615d85f5cbbc6083b288407ae30d4c08825d77635152522c1764736f6c63430008110033",
  "devdoc": {
    "kind": "dev",
    "methods": {},
    "version": 1
  },
  "userdoc": {
    "kind": "user",
    "methods": {},
    "version": 1
  },
  "storageLayout": {
    "storage": [
      {
        "astId": 186,
        "contract": "contracts/RockPaperScissors.sol:RockPaperScissors",
        "label": "idToGame",
        "offset": 0,
        "slot": "0",
        "type": "t_mapping(t_uint256,t_struct(Game)176_storage)"
      },
      {
        "astId": 190,
        "contract": "contracts/RockPaperScissors.sol:RockPaperScissors",
        "label": "games",
        "offset": 0,
        "slot": "1",
        "type": "t_array(t_struct(Game)176_storage)dyn_storage"
      },
      {
        "astId": 197,
        "contract": "contracts/RockPaperScissors.sol:RockPaperScissors",
        "label": "moves",
        "offset": 0,
        "slot": "2",
        "type": "t_mapping(t_uint256,t_mapping(t_address,t_struct(Move)181_storage))"
      },
      {
        "astId": 201,
        "contract": "contracts/RockPaperScissors.sol:RockPaperScissors",
        "label": "winningMoves",
        "offset": 0,
        "slot": "3",
        "type": "t_mapping(t_uint256,t_uint256)"
      },
      {
        "astId": 204,
        "contract": "contracts/RockPaperScissors.sol:RockPaperScissors",
        "label": "gameId",
        "offset": 0,
        "slot": "4",
        "type": "t_struct(Counter)71_storage"
      },
      {
        "astId": 207,
        "contract": "contracts/RockPaperScissors.sol:RockPaperScissors",
        "label": "tokenContract",
        "offset": 0,
        "slot": "5",
        "type": "t_contract(IERC20)68"
      }
    ],
    "types": {
      "t_address": {
        "encoding": "inplace",
        "label": "address",
        "numberOfBytes": "20"
      },
      "t_array(t_address)2_storage": {
        "base": "t_address",
        "encoding": "inplace",
        "label": "address[2]",
        "numberOfBytes": "64"
      },
      "t_array(t_struct(Game)176_storage)dyn_storage": {
        "base": "t_struct(Game)176_storage",
        "encoding": "dynamic_array",
        "label": "struct RockPaperScissors.Game[]",
        "numberOfBytes": "32"
      },
      "t_bytes32": {
        "encoding": "inplace",
        "label": "bytes32",
        "numberOfBytes": "32"
      },
      "t_contract(IERC20)68": {
        "encoding": "inplace",
        "label": "contract IERC20",
        "numberOfBytes": "20"
      },
      "t_enum(State)164": {
        "encoding": "inplace",
        "label": "enum RockPaperScissors.State",
        "numberOfBytes": "1"
      },
      "t_mapping(t_address,t_struct(Move)181_storage)": {
        "encoding": "mapping",
        "key": "t_address",
        "label": "mapping(address => struct RockPaperScissors.Move)",
        "numberOfBytes": "32",
        "value": "t_struct(Move)181_storage"
      },
      "t_mapping(t_uint256,t_mapping(t_address,t_struct(Move)181_storage))": {
        "encoding": "mapping",
        "key": "t_uint256",
        "label": "mapping(uint256 => mapping(address => struct RockPaperScissors.Move))",
        "numberOfBytes": "32",
        "value": "t_mapping(t_address,t_struct(Move)181_storage)"
      },
      "t_mapping(t_uint256,t_struct(Game)176_storage)": {
        "encoding": "mapping",
        "key": "t_uint256",
        "label": "mapping(uint256 => struct RockPaperScissors.Game)",
        "numberOfBytes": "32",
        "value": "t_struct(Game)176_storage"
      },
      "t_mapping(t_uint256,t_uint256)": {
        "encoding": "mapping",
        "key": "t_uint256",
        "label": "mapping(uint256 => uint256)",
        "numberOfBytes": "32",
        "value": "t_uint256"
      },
      "t_struct(Counter)71_storage": {
        "encoding": "inplace",
        "label": "struct Counters.Counter",
        "members": [
          {
            "astId": 70,
            "contract": "contracts/RockPaperScissors.sol:RockPaperScissors",
            "label": "_value",
            "offset": 0,
            "slot": "0",
            "type": "t_uint256"
          }
        ],
        "numberOfBytes": "32"
      },
      "t_struct(Game)176_storage": {
        "encoding": "inplace",
        "label": "struct RockPaperScissors.Game",
        "members": [
          {
            "astId": 166,
            "contract": "contracts/RockPaperScissors.sol:RockPaperScissors",
            "label": "id",
            "offset": 0,
            "slot": "0",
            "type": "t_uint256"
          },
          {
            "astId": 168,
            "contract": "contracts/RockPaperScissors.sol:RockPaperScissors",
            "label": "stakeAmount",
            "offset": 0,
            "slot": "1",
            "type": "t_uint256"
          },
          {
            "astId": 172,
            "contract": "contracts/RockPaperScissors.sol:RockPaperScissors",
            "label": "players",
            "offset": 0,
            "slot": "2",
            "type": "t_array(t_address)2_storage"
          },
          {
            "astId": 175,
            "contract": "contracts/RockPaperScissors.sol:RockPaperScissors",
            "label": "state",
            "offset": 0,
            "slot": "4",
            "type": "t_enum(State)164"
          }
        ],
        "numberOfBytes": "160"
      },
      "t_struct(Move)181_storage": {
        "encoding": "inplace",
        "label": "struct RockPaperScissors.Move",
        "members": [
          {
            "astId": 178,
            "contract": "contracts/RockPaperScissors.sol:RockPaperScissors",
            "label": "hash",
            "offset": 0,
            "slot": "0",
            "type": "t_bytes32"
          },
          {
            "astId": 180,
            "contract": "contracts/RockPaperScissors.sol:RockPaperScissors",
            "label": "value",
            "offset": 0,
            "slot": "1",
            "type": "t_uint256"
          }
        ],
        "numberOfBytes": "64"
      },
      "t_uint256": {
        "encoding": "inplace",
        "label": "uint256",
        "numberOfBytes": "32"
      }
    }
  }
}